{
  "contractName": "EventMainWithMappings",
  "abi": [
    {
      "inputs": [],
      "stateMutability": "nonpayable",
      "type": "constructor"
    },
    {
      "anonymous": false,
      "inputs": [
        {
          "indexed": true,
          "internalType": "address",
          "name": "owner",
          "type": "address"
        },
        {
          "indexed": true,
          "internalType": "address",
          "name": "approved",
          "type": "address"
        },
        {
          "indexed": true,
          "internalType": "uint256",
          "name": "tokenId",
          "type": "uint256"
        }
      ],
      "name": "Approval",
      "type": "event"
    },
    {
      "anonymous": false,
      "inputs": [
        {
          "indexed": true,
          "internalType": "address",
          "name": "owner",
          "type": "address"
        },
        {
          "indexed": true,
          "internalType": "address",
          "name": "operator",
          "type": "address"
        },
        {
          "indexed": false,
          "internalType": "bool",
          "name": "approved",
          "type": "bool"
        }
      ],
      "name": "ApprovalForAll",
      "type": "event"
    },
    {
      "anonymous": false,
      "inputs": [
        {
          "indexed": true,
          "internalType": "address",
          "name": "from",
          "type": "address"
        },
        {
          "indexed": true,
          "internalType": "address",
          "name": "to",
          "type": "address"
        },
        {
          "indexed": true,
          "internalType": "uint256",
          "name": "tokenId",
          "type": "uint256"
        }
      ],
      "name": "Transfer",
      "type": "event"
    },
    {
      "inputs": [
        {
          "internalType": "address",
          "name": "to",
          "type": "address"
        },
        {
          "internalType": "uint256",
          "name": "tokenId",
          "type": "uint256"
        }
      ],
      "name": "approve",
      "outputs": [],
      "stateMutability": "nonpayable",
      "type": "function"
    },
    {
      "inputs": [
        {
          "internalType": "address",
          "name": "owner",
          "type": "address"
        }
      ],
      "name": "balanceOf",
      "outputs": [
        {
          "internalType": "uint256",
          "name": "",
          "type": "uint256"
        }
      ],
      "stateMutability": "view",
      "type": "function"
    },
    {
      "inputs": [
        {
          "internalType": "uint256",
          "name": "tokenId",
          "type": "uint256"
        }
      ],
      "name": "getApproved",
      "outputs": [
        {
          "internalType": "address",
          "name": "",
          "type": "address"
        }
      ],
      "stateMutability": "view",
      "type": "function"
    },
    {
      "inputs": [
        {
          "internalType": "address",
          "name": "owner",
          "type": "address"
        },
        {
          "internalType": "address",
          "name": "operator",
          "type": "address"
        }
      ],
      "name": "isApprovedForAll",
      "outputs": [
        {
          "internalType": "bool",
          "name": "",
          "type": "bool"
        }
      ],
      "stateMutability": "view",
      "type": "function"
    },
    {
      "inputs": [],
      "name": "name",
      "outputs": [
        {
          "internalType": "string",
          "name": "",
          "type": "string"
        }
      ],
      "stateMutability": "view",
      "type": "function"
    },
    {
      "inputs": [
        {
          "internalType": "uint256",
          "name": "tokenId",
          "type": "uint256"
        }
      ],
      "name": "ownerOf",
      "outputs": [
        {
          "internalType": "address",
          "name": "",
          "type": "address"
        }
      ],
      "stateMutability": "view",
      "type": "function"
    },
    {
      "inputs": [
        {
          "internalType": "address",
          "name": "from",
          "type": "address"
        },
        {
          "internalType": "address",
          "name": "to",
          "type": "address"
        },
        {
          "internalType": "uint256",
          "name": "tokenId",
          "type": "uint256"
        }
      ],
      "name": "safeTransferFrom",
      "outputs": [],
      "stateMutability": "nonpayable",
      "type": "function"
    },
    {
      "inputs": [
        {
          "internalType": "address",
          "name": "from",
          "type": "address"
        },
        {
          "internalType": "address",
          "name": "to",
          "type": "address"
        },
        {
          "internalType": "uint256",
          "name": "tokenId",
          "type": "uint256"
        },
        {
          "internalType": "bytes",
          "name": "_data",
          "type": "bytes"
        }
      ],
      "name": "safeTransferFrom",
      "outputs": [],
      "stateMutability": "nonpayable",
      "type": "function"
    },
    {
      "inputs": [
        {
          "internalType": "address",
          "name": "operator",
          "type": "address"
        },
        {
          "internalType": "bool",
          "name": "approved",
          "type": "bool"
        }
      ],
      "name": "setApprovalForAll",
      "outputs": [],
      "stateMutability": "nonpayable",
      "type": "function"
    },
    {
      "inputs": [
        {
          "internalType": "bytes4",
          "name": "interfaceId",
          "type": "bytes4"
        }
      ],
      "name": "supportsInterface",
      "outputs": [
        {
          "internalType": "bool",
          "name": "",
          "type": "bool"
        }
      ],
      "stateMutability": "view",
      "type": "function"
    },
    {
      "inputs": [],
      "name": "symbol",
      "outputs": [
        {
          "internalType": "string",
          "name": "",
          "type": "string"
        }
      ],
      "stateMutability": "view",
      "type": "function"
    },
    {
      "inputs": [
        {
          "internalType": "uint256",
          "name": "tokenId",
          "type": "uint256"
        }
      ],
      "name": "tokenURI",
      "outputs": [
        {
          "internalType": "string",
          "name": "",
          "type": "string"
        }
      ],
      "stateMutability": "view",
      "type": "function"
    },
    {
      "inputs": [
        {
          "internalType": "address",
          "name": "from",
          "type": "address"
        },
        {
          "internalType": "address",
          "name": "to",
          "type": "address"
        },
        {
          "internalType": "uint256",
          "name": "tokenId",
          "type": "uint256"
        }
      ],
      "name": "transferFrom",
      "outputs": [],
      "stateMutability": "nonpayable",
      "type": "function"
    },
    {
      "inputs": [
        {
          "internalType": "string",
          "name": "_title",
          "type": "string"
        },
        {
          "internalType": "string",
          "name": "_description",
          "type": "string"
        },
        {
          "internalType": "uint256",
          "name": "_amount",
          "type": "uint256"
        },
        {
          "internalType": "uint256",
          "name": "_price",
          "type": "uint256"
        }
      ],
      "name": "createEvent",
      "outputs": [],
      "stateMutability": "nonpayable",
      "type": "function"
    },
    {
      "inputs": [],
      "name": "getEvents",
      "outputs": [
        {
          "components": [
            {
              "internalType": "string",
              "name": "title",
              "type": "string"
            },
            {
              "internalType": "string",
              "name": "description",
              "type": "string"
            },
            {
              "internalType": "address payable",
              "name": "creator",
              "type": "address"
            },
            {
              "internalType": "uint256",
              "name": "amount",
              "type": "uint256"
            },
            {
              "internalType": "uint256",
              "name": "remainingAmount",
              "type": "uint256"
            },
            {
              "internalType": "uint256",
              "name": "price",
              "type": "uint256"
            }
          ],
          "internalType": "struct EventMainWithMappings.Event[]",
          "name": "evt",
          "type": "tuple[]"
        }
      ],
      "stateMutability": "view",
      "type": "function"
    },
    {
      "inputs": [],
      "name": "getTickets",
      "outputs": [
        {
          "components": [
            {
              "internalType": "uint256",
              "name": "evtId",
              "type": "uint256"
            },
            {
              "internalType": "uint256",
              "name": "number",
              "type": "uint256"
            },
            {
              "internalType": "address payable",
              "name": "owner",
              "type": "address"
            },
            {
              "internalType": "uint256",
              "name": "price",
              "type": "uint256"
            },
            {
              "internalType": "bool",
              "name": "forSale",
              "type": "bool"
            }
          ],
          "internalType": "struct EventMainWithMappings.Ticket[]",
          "name": "ticket",
          "type": "tuple[]"
        }
      ],
      "stateMutability": "view",
      "type": "function"
    },
    {
      "inputs": [],
      "name": "getTicketsForSale",
      "outputs": [
        {
          "components": [
            {
              "internalType": "uint256",
              "name": "evtId",
              "type": "uint256"
            },
            {
              "internalType": "uint256",
              "name": "number",
              "type": "uint256"
            },
            {
              "internalType": "address payable",
              "name": "owner",
              "type": "address"
            },
            {
              "internalType": "uint256",
              "name": "price",
              "type": "uint256"
            },
            {
              "internalType": "bool",
              "name": "forSale",
              "type": "bool"
            }
          ],
          "internalType": "struct EventMainWithMappings.Ticket[]",
          "name": "ticket",
          "type": "tuple[]"
        }
      ],
      "stateMutability": "view",
      "type": "function"
    },
    {
      "inputs": [],
      "name": "getMyTickets",
      "outputs": [
        {
          "components": [
            {
              "internalType": "uint256",
              "name": "evtId",
              "type": "uint256"
            },
            {
              "internalType": "uint256",
              "name": "number",
              "type": "uint256"
            },
            {
              "internalType": "address payable",
              "name": "owner",
              "type": "address"
            },
            {
              "internalType": "uint256",
              "name": "price",
              "type": "uint256"
            },
            {
              "internalType": "bool",
              "name": "forSale",
              "type": "bool"
            }
          ],
          "internalType": "struct EventMainWithMappings.Ticket[]",
          "name": "ticket",
          "type": "tuple[]"
        }
      ],
      "stateMutability": "view",
      "type": "function"
    },
    {
      "inputs": [
        {
          "internalType": "uint256",
          "name": "evtId",
          "type": "uint256"
        }
      ],
      "name": "buyTicket",
      "outputs": [],
      "stateMutability": "payable",
      "type": "function"
    },
    {
      "inputs": [
        {
          "internalType": "uint256",
          "name": "ticketId",
          "type": "uint256"
        }
      ],
      "name": "buyTicketFromMarket",
      "outputs": [],
      "stateMutability": "payable",
      "type": "function"
    },
    {
      "inputs": [
        {
          "internalType": "uint256",
          "name": "_ticketId",
          "type": "uint256"
        },
        {
          "internalType": "uint256",
          "name": "_price",
          "type": "uint256"
        }
      ],
      "name": "startSellingTicket",
      "outputs": [],
      "stateMutability": "nonpayable",
      "type": "function"
    },
    {
      "inputs": [
        {
          "internalType": "uint256",
          "name": "_ticketId",
          "type": "uint256"
        }
      ],
      "name": "stopSellingTicket",
      "outputs": [],
      "stateMutability": "nonpayable",
      "type": "function"
    }
  ],
  "bytecode": "0x60806040523480156200001157600080fd5b506040518060400160405280600581526020017f4576656e740000000000000000000000000000000000000000000000000000008152506040518060400160405280600381526020017f4556540000000000000000000000000000000000000000000000000000000000815250816000908051906020019062000096929190620000b8565b508060019080519060200190620000af929190620000b8565b505050620001cd565b828054620000c69062000168565b90600052602060002090601f016020900481019282620000ea576000855562000136565b82601f106200010557805160ff191683800117855562000136565b8280016001018555821562000136579182015b828111156200013557825182559160200191906001019062000118565b5b50905062000145919062000149565b5090565b5b80821115620001645760008160009055506001016200014a565b5090565b600060028204905060018216806200018157607f821691505b602082108114156200019857620001976200019e565b5b50919050565b7f4e487b7100000000000000000000000000000000000000000000000000000000600052602260045260246000fd5b6140e380620001dd6000396000f3fe6080604052600436106101355760003560e01c806367dd74ca116100ab578063a22cb4651161006f578063a22cb4651461040a578063b88d4fde14610433578063bce062b91461045c578063c87b56dd14610485578063e1d10d85146104c2578063e985e9c5146104ed57610135565b806367dd74ca1461033457806370a08231146103505780637522a89f1461038d57806395d89b41146103b657806396dab557146103e157610135565b806323b872dd116100fd57806323b872dd1461022457806335fe12d81461024d578063404aa8f91461027857806342842e0e146102a35780634ed02622146102cc5780636352211e146102f757610135565b806301ffc9a71461013a57806306fdde0314610177578063081812fc146101a2578063095ea7b3146101df5780632026def714610208575b600080fd5b34801561014657600080fd5b50610161600480360381019061015c9190612f7e565b61052a565b60405161016e91906139e6565b60405180910390f35b34801561018357600080fd5b5061018c61060c565b6040516101999190613a01565b60405180910390f35b3480156101ae57600080fd5b506101c960048036038101906101c49190613063565b61069e565b6040516101d6919061393b565b60405180910390f35b3480156101eb57600080fd5b5061020660048036038101906102019190612f42565b610723565b005b610222600480360381019061021d9190613063565b61083b565b005b34801561023057600080fd5b5061024b60048036038101906102469190612e3c565b610a4a565b005b34801561025957600080fd5b50610262610aaa565b60405161026f91906139c4565b60405180910390f35b34801561028457600080fd5b5061028d610c7d565b60405161029a91906139a2565b60405180910390f35b3480156102af57600080fd5b506102ca60048036038101906102c59190612e3c565b610f21565b005b3480156102d857600080fd5b506102e1610f41565b6040516102ee91906139c4565b60405180910390f35b34801561030357600080fd5b5061031e60048036038101906103199190613063565b6110dc565b60405161032b919061393b565b60405180910390f35b61034e60048036038101906103499190613063565b61118e565b005b34801561035c57600080fd5b5061037760048036038101906103729190612dd7565b6115d5565b6040516103849190613be3565b60405180910390f35b34801561039957600080fd5b506103b460048036038101906103af9190613063565b61168d565b005b3480156103c257600080fd5b506103cb611815565b6040516103d89190613a01565b60405180910390f35b3480156103ed57600080fd5b506104086004803603810190610403919061308c565b6118a7565b005b34801561041657600080fd5b50610431600480360381019061042c9190612f06565b611a2f565b005b34801561043f57600080fd5b5061045a60048036038101906104559190612e8b565b611bb0565b005b34801561046857600080fd5b50610483600480360381019061047e9190612fd0565b611c12565b005b34801561049157600080fd5b506104ac60048036038101906104a79190613063565b611d32565b6040516104b99190613a01565b60405180910390f35b3480156104ce57600080fd5b506104d7611dd9565b6040516104e491906139c4565b60405180910390f35b3480156104f957600080fd5b50610514600480360381019061050f9190612e00565b611fed565b60405161052191906139e6565b60405180910390f35b60007f80ac58cd000000000000000000000000000000000000000000000000000000007bffffffffffffffffffffffffffffffffffffffffffffffffffffffff1916827bffffffffffffffffffffffffffffffffffffffffffffffffffffffff191614806105f557507f5b5e139f000000000000000000000000000000000000000000000000000000007bffffffffffffffffffffffffffffffffffffffffffffffffffffffff1916827bffffffffffffffffffffffffffffffffffffffffffffffffffffffff1916145b80610605575061060482612081565b5b9050919050565b60606000805461061b90613ed8565b80601f016020809104026020016040519081016040528092919081815260200182805461064790613ed8565b80156106945780601f1061066957610100808354040283529160200191610694565b820191906000526020600020905b81548152906001019060200180831161067757829003601f168201915b5050505050905090565b60006106a9826120eb565b6106e8576040517f08c379a00000000000000000000000000000000000000000000000000000000081526004016106df90613b43565b60405180910390fd5b6004600083815260200190815260200160002060009054906101000a900473ffffffffffffffffffffffffffffffffffffffff169050919050565b600061072e826110dc565b90508073ffffffffffffffffffffffffffffffffffffffff168373ffffffffffffffffffffffffffffffffffffffff16141561079f576040517f08c379a000000000000000000000000000000000000000000000000000000000815260040161079690613ba3565b60405180910390fd5b8073ffffffffffffffffffffffffffffffffffffffff166107be612157565b73ffffffffffffffffffffffffffffffffffffffff1614806107ed57506107ec816107e7612157565b611fed565b5b61082c576040517f08c379a000000000000000000000000000000000000000000000000000000000815260040161082390613ac3565b60405180910390fd5b610836838361215f565b505050565b6006548110801561084d575060008110155b61085657600080fd5b6000600860008381526020019081526020016000206040518060a001604052908160008201548152602001600182015481526020016002820160009054906101000a900473ffffffffffffffffffffffffffffffffffffffff1673ffffffffffffffffffffffffffffffffffffffff1673ffffffffffffffffffffffffffffffffffffffff168152602001600382015481526020016004820160009054906101000a900460ff1615151515815250509050806060015134101561091857600080fd5b806040015173ffffffffffffffffffffffffffffffffffffffff166108fc349081150290604051600060405180830381858888f19350505050158015610962573d6000803e3d6000fd5b5061097281604001513384612218565b33816040019073ffffffffffffffffffffffffffffffffffffffff16908173ffffffffffffffffffffffffffffffffffffffff16815250508060086000848152602001908152602001600020600082015181600001556020820151816001015560408201518160020160006101000a81548173ffffffffffffffffffffffffffffffffffffffff021916908373ffffffffffffffffffffffffffffffffffffffff1602179055506060820151816003015560808201518160040160006101000a81548160ff0219169083151502179055509050505050565b610a5b610a55612157565b82612474565b610a9a576040517f08c379a0000000000000000000000000000000000000000000000000000000008152600401610a9190613bc3565b60405180910390fd5b610aa5838383612218565b505050565b6060600060065467ffffffffffffffff811115610af0577f4e487b7100000000000000000000000000000000000000000000000000000000600052604160045260246000fd5b604051908082528060200260200182016040528015610b2957816020015b610b16612b68565b815260200190600190039081610b0e5790505b5090506000805b600654811015610c74576008600082815260200190815260200160002060040160009054906101000a900460ff1615610c6157600860008281526020019081526020016000206040518060a001604052908160008201548152602001600182015481526020016002820160009054906101000a900473ffffffffffffffffffffffffffffffffffffffff1673ffffffffffffffffffffffffffffffffffffffff1673ffffffffffffffffffffffffffffffffffffffff168152602001600382015481526020016004820160009054906101000a900460ff161515151581525050838381518110610c49577f4e487b7100000000000000000000000000000000000000000000000000000000600052603260045260246000fd5b602002602001018190525081610c5e90613f0a565b91505b8080610c6c90613f0a565b915050610b30565b50819250505090565b6060600060075467ffffffffffffffff811115610cc3577f4e487b7100000000000000000000000000000000000000000000000000000000600052604160045260246000fd5b604051908082528060200260200182016040528015610cfc57816020015b610ce9612baf565b815260200190600190039081610ce15790505b50905060005b600754811015610f1957600960008281526020019081526020016000206040518060c0016040529081600082018054610d3a90613ed8565b80601f0160208091040260200160405190810160405280929190818152602001828054610d6690613ed8565b8015610db35780601f10610d8857610100808354040283529160200191610db3565b820191906000526020600020905b815481529060010190602001808311610d9657829003601f168201915b50505050508152602001600182018054610dcc90613ed8565b80601f0160208091040260200160405190810160405280929190818152602001828054610df890613ed8565b8015610e455780601f10610e1a57610100808354040283529160200191610e45565b820191906000526020600020905b815481529060010190602001808311610e2857829003601f168201915b505050505081526020016002820160009054906101000a900473ffffffffffffffffffffffffffffffffffffffff1673ffffffffffffffffffffffffffffffffffffffff1673ffffffffffffffffffffffffffffffffffffffff1681526020016003820154815260200160048201548152602001600582015481525050828281518110610efb577f4e487b7100000000000000000000000000000000000000000000000000000000600052603260045260246000fd5b60200260200101819052508080610f1190613f0a565b915050610d02565b508091505090565b610f3c83838360405180602001604052806000815250611bb0565b505050565b6060600060065467ffffffffffffffff811115610f87577f4e487b7100000000000000000000000000000000000000000000000000000000600052604160045260246000fd5b604051908082528060200260200182016040528015610fc057816020015b610fad612b68565b815260200190600190039081610fa55790505b50905060005b6006548110156110d457600860008281526020019081526020016000206040518060a001604052908160008201548152602001600182015481526020016002820160009054906101000a900473ffffffffffffffffffffffffffffffffffffffff1673ffffffffffffffffffffffffffffffffffffffff1673ffffffffffffffffffffffffffffffffffffffff168152602001600382015481526020016004820160009054906101000a900460ff1615151515815250508282815181106110b6577f4e487b7100000000000000000000000000000000000000000000000000000000600052603260045260246000fd5b602002602001018190525080806110cc90613f0a565b915050610fc6565b508091505090565b6000806002600084815260200190815260200160002060009054906101000a900473ffffffffffffffffffffffffffffffffffffffff169050600073ffffffffffffffffffffffffffffffffffffffff168173ffffffffffffffffffffffffffffffffffffffff161415611185576040517f08c379a000000000000000000000000000000000000000000000000000000000815260040161117c90613b03565b60405180910390fd5b80915050919050565b600754811080156111a0575060008110155b6111a957600080fd5b6000600960008381526020019081526020016000206040518060c00160405290816000820180546111d990613ed8565b80601f016020809104026020016040519081016040528092919081815260200182805461120590613ed8565b80156112525780601f1061122757610100808354040283529160200191611252565b820191906000526020600020905b81548152906001019060200180831161123557829003601f168201915b5050505050815260200160018201805461126b90613ed8565b80601f016020809104026020016040519081016040528092919081815260200182805461129790613ed8565b80156112e45780601f106112b9576101008083540402835291602001916112e4565b820191906000526020600020905b8154815290600101906020018083116112c757829003601f168201915b505050505081526020016002820160009054906101000a900473ffffffffffffffffffffffffffffffffffffffff1673ffffffffffffffffffffffffffffffffffffffff1673ffffffffffffffffffffffffffffffffffffffff168152602001600382015481526020016004820154815260200160058201548152505090508060a0015134101561137457600080fd5b600081608001511161138557600080fd5b600060018260800151836060015161139d9190613ddc565b6113a79190613d55565b90506001826080018181516113bc9190613ddc565b915081815250508160096000600754815260200190815260200160002060008201518160000190805190602001906113f5929190612bfb565b506020820151816001019080519060200190611412929190612bfb565b5060408201518160020160006101000a81548173ffffffffffffffffffffffffffffffffffffffff021916908373ffffffffffffffffffffffffffffffffffffffff160217905550606082015181600301556080820151816004015560a0820151816005015590505060006040518060a001604052808581526020018381526020013373ffffffffffffffffffffffffffffffffffffffff1681526020016000815260200160001515815250905080600860006006548152602001908152602001600020600082015181600001556020820151816001015560408201518160020160006101000a81548173ffffffffffffffffffffffffffffffffffffffff021916908373ffffffffffffffffffffffffffffffffffffffff1602179055506060820151816003015560808201518160040160006101000a81548160ff02191690831515021790555090505061156a33600654612552565b60016006600082825461157d9190613d55565b92505081905550826040015173ffffffffffffffffffffffffffffffffffffffff166108fc349081150290604051600060405180830381858888f193505050501580156115ce573d6000803e3d6000fd5b5050505050565b60008073ffffffffffffffffffffffffffffffffffffffff168273ffffffffffffffffffffffffffffffffffffffff161415611646576040517f08c379a000000000000000000000000000000000000000000000000000000000815260040161163d90613ae3565b60405180910390fd5b600360008373ffffffffffffffffffffffffffffffffffffffff1673ffffffffffffffffffffffffffffffffffffffff168152602001908152602001600020549050919050565b6006548110801561169f575060008110155b6116a857600080fd5b6000600860008381526020019081526020016000206040518060a001604052908160008201548152602001600182015481526020016002820160009054906101000a900473ffffffffffffffffffffffffffffffffffffffff1673ffffffffffffffffffffffffffffffffffffffff1673ffffffffffffffffffffffffffffffffffffffff168152602001600382015481526020016004820160009054906101000a900460ff1615151515815250509050600181608001901515908115158152505060008160600181815250508060086000848152602001908152602001600020600082015181600001556020820151816001015560408201518160020160006101000a81548173ffffffffffffffffffffffffffffffffffffffff021916908373ffffffffffffffffffffffffffffffffffffffff1602179055506060820151816003015560808201518160040160006101000a81548160ff0219169083151502179055509050505050565b60606001805461182490613ed8565b80601f016020809104026020016040519081016040528092919081815260200182805461185090613ed8565b801561189d5780601f106118725761010080835404028352916020019161189d565b820191906000526020600020905b81548152906001019060200180831161188057829003601f168201915b5050505050905090565b600654821080156118b9575060008210155b6118c257600080fd5b6000600860008481526020019081526020016000206040518060a001604052908160008201548152602001600182015481526020016002820160009054906101000a900473ffffffffffffffffffffffffffffffffffffffff1673ffffffffffffffffffffffffffffffffffffffff1673ffffffffffffffffffffffffffffffffffffffff168152602001600382015481526020016004820160009054906101000a900460ff16151515158152505090506001816080019015159081151581525050818160600181815250508060086000858152602001908152602001600020600082015181600001556020820151816001015560408201518160020160006101000a81548173ffffffffffffffffffffffffffffffffffffffff021916908373ffffffffffffffffffffffffffffffffffffffff1602179055506060820151816003015560808201518160040160006101000a81548160ff021916908315150217905550905050505050565b611a37612157565b73ffffffffffffffffffffffffffffffffffffffff168273ffffffffffffffffffffffffffffffffffffffff161415611aa5576040517f08c379a0000000000000000000000000000000000000000000000000000000008152600401611a9c90613a83565b60405180910390fd5b8060056000611ab2612157565b73ffffffffffffffffffffffffffffffffffffffff1673ffffffffffffffffffffffffffffffffffffffff16815260200190815260200160002060008473ffffffffffffffffffffffffffffffffffffffff1673ffffffffffffffffffffffffffffffffffffffff16815260200190815260200160002060006101000a81548160ff0219169083151502179055508173ffffffffffffffffffffffffffffffffffffffff16611b5f612157565b73ffffffffffffffffffffffffffffffffffffffff167f17307eab39ab6107e8899845ad3d59bd9653f200f220920489ca2b5937696c3183604051611ba491906139e6565b60405180910390a35050565b611bc1611bbb612157565b83612474565b611c00576040517f08c379a0000000000000000000000000000000000000000000000000000000008152600401611bf790613bc3565b60405180910390fd5b611c0c84848484612570565b50505050565b60006040518060c001604052808681526020018581526020013373ffffffffffffffffffffffffffffffffffffffff168152602001848152602001848152602001838152509050806009600060075481526020019081526020016000206000820151816000019080519060200190611c8b929190612bfb565b506020820151816001019080519060200190611ca8929190612bfb565b5060408201518160020160006101000a81548173ffffffffffffffffffffffffffffffffffffffff021916908373ffffffffffffffffffffffffffffffffffffffff160217905550606082015181600301556080820151816004015560a08201518160050155905050600160076000828254611d249190613d55565b925050819055505050505050565b6060611d3d826120eb565b611d7c576040517f08c379a0000000000000000000000000000000000000000000000000000000008152600401611d7390613b83565b60405180910390fd5b6000611d866125cc565b90506000815111611da65760405180602001604052806000815250611dd1565b80611db0846125e3565b604051602001611dc1929190613917565b6040516020818303038152906040525b915050919050565b6060600060065467ffffffffffffffff811115611e1f577f4e487b7100000000000000000000000000000000000000000000000000000000600052604160045260246000fd5b604051908082528060200260200182016040528015611e5857816020015b611e45612b68565b815260200190600190039081611e3d5790505b5090506000805b600654811015611fe4573373ffffffffffffffffffffffffffffffffffffffff166008600083815260200190815260200160002060020160009054906101000a900473ffffffffffffffffffffffffffffffffffffffff1673ffffffffffffffffffffffffffffffffffffffff161415611fd157600860008281526020019081526020016000206040518060a001604052908160008201548152602001600182015481526020016002820160009054906101000a900473ffffffffffffffffffffffffffffffffffffffff1673ffffffffffffffffffffffffffffffffffffffff1673ffffffffffffffffffffffffffffffffffffffff168152602001600382015481526020016004820160009054906101000a900460ff161515151581525050838381518110611fb9577f4e487b7100000000000000000000000000000000000000000000000000000000600052603260045260246000fd5b602002602001018190525081611fce90613f0a565b91505b8080611fdc90613f0a565b915050611e5f565b50819250505090565b6000600560008473ffffffffffffffffffffffffffffffffffffffff1673ffffffffffffffffffffffffffffffffffffffff16815260200190815260200160002060008373ffffffffffffffffffffffffffffffffffffffff1673ffffffffffffffffffffffffffffffffffffffff16815260200190815260200160002060009054906101000a900460ff16905092915050565b60007f01ffc9a7000000000000000000000000000000000000000000000000000000007bffffffffffffffffffffffffffffffffffffffffffffffffffffffff1916827bffffffffffffffffffffffffffffffffffffffffffffffffffffffff1916149050919050565b60008073ffffffffffffffffffffffffffffffffffffffff166002600084815260200190815260200160002060009054906101000a900473ffffffffffffffffffffffffffffffffffffffff1673ffffffffffffffffffffffffffffffffffffffff1614159050919050565b600033905090565b816004600083815260200190815260200160002060006101000a81548173ffffffffffffffffffffffffffffffffffffffff021916908373ffffffffffffffffffffffffffffffffffffffff160217905550808273ffffffffffffffffffffffffffffffffffffffff166121d2836110dc565b73ffffffffffffffffffffffffffffffffffffffff167f8c5be1e5ebec7d5bd14f71427d1e84f3dd0314c0f7b2291e5b200ac8c7c3b92560405160405180910390a45050565b8273ffffffffffffffffffffffffffffffffffffffff16612238826110dc565b73ffffffffffffffffffffffffffffffffffffffff161461228e576040517f08c379a000000000000000000000000000000000000000000000000000000000815260040161228590613b63565b60405180910390fd5b600073ffffffffffffffffffffffffffffffffffffffff168273ffffffffffffffffffffffffffffffffffffffff1614156122fe576040517f08c379a00000000000000000000000000000000000000000000000000000000081526004016122f590613a63565b60405180910390fd5b612309838383612790565b61231460008261215f565b6001600360008573ffffffffffffffffffffffffffffffffffffffff1673ffffffffffffffffffffffffffffffffffffffff16815260200190815260200160002060008282546123649190613ddc565b925050819055506001600360008473ffffffffffffffffffffffffffffffffffffffff1673ffffffffffffffffffffffffffffffffffffffff16815260200190815260200160002060008282546123bb9190613d55565b92505081905550816002600083815260200190815260200160002060006101000a81548173ffffffffffffffffffffffffffffffffffffffff021916908373ffffffffffffffffffffffffffffffffffffffff160217905550808273ffffffffffffffffffffffffffffffffffffffff168473ffffffffffffffffffffffffffffffffffffffff167fddf252ad1be2c89b69c2b068fc378daa952ba7f163c4a11628f55a4df523b3ef60405160405180910390a4505050565b600061247f826120eb565b6124be576040517f08c379a00000000000000000000000000000000000000000000000000000000081526004016124b590613aa3565b60405180910390fd5b60006124c9836110dc565b90508073ffffffffffffffffffffffffffffffffffffffff168473ffffffffffffffffffffffffffffffffffffffff16148061253857508373ffffffffffffffffffffffffffffffffffffffff166125208461069e565b73ffffffffffffffffffffffffffffffffffffffff16145b8061254957506125488185611fed565b5b91505092915050565b61256c828260405180602001604052806000815250612795565b5050565b61257b848484612218565b612587848484846127f0565b6125c6576040517f08c379a00000000000000000000000000000000000000000000000000000000081526004016125bd90613a23565b60405180910390fd5b50505050565b606060405180602001604052806000815250905090565b6060600082141561262b576040518060400160405280600181526020017f3000000000000000000000000000000000000000000000000000000000000000815250905061278b565b600082905060005b6000821461265d57808061264690613f0a565b915050600a826126569190613dab565b9150612633565b60008167ffffffffffffffff81111561269f577f4e487b7100000000000000000000000000000000000000000000000000000000600052604160045260246000fd5b6040519080825280601f01601f1916602001820160405280156126d15781602001600182028036833780820191505090505b5090505b60008514612784576001826126ea9190613ddc565b9150600a856126f99190613f53565b60306127059190613d55565b60f81b818381518110612741577f4e487b7100000000000000000000000000000000000000000000000000000000600052603260045260246000fd5b60200101907effffffffffffffffffffffffffffffffffffffffffffffffffffffffffffff1916908160001a905350600a8561277d9190613dab565b94506126d5565b8093505050505b919050565b505050565b61279f8383612987565b6127ac60008484846127f0565b6127eb576040517f08c379a00000000000000000000000000000000000000000000000000000000081526004016127e290613a23565b60405180910390fd5b505050565b60006128118473ffffffffffffffffffffffffffffffffffffffff16612b55565b1561297a578373ffffffffffffffffffffffffffffffffffffffff1663150b7a0261283a612157565b8786866040518563ffffffff1660e01b815260040161285c9493929190613956565b602060405180830381600087803b15801561287657600080fd5b505af19250505080156128a757506040513d601f19601f820116820180604052508101906128a49190612fa7565b60015b61292a573d80600081146128d7576040519150601f19603f3d011682016040523d82523d6000602084013e6128dc565b606091505b50600081511415612922576040517f08c379a000000000000000000000000000000000000000000000000000000000815260040161291990613a23565b60405180910390fd5b805181602001fd5b63150b7a0260e01b7bffffffffffffffffffffffffffffffffffffffffffffffffffffffff1916817bffffffffffffffffffffffffffffffffffffffffffffffffffffffff19161491505061297f565b600190505b949350505050565b600073ffffffffffffffffffffffffffffffffffffffff168273ffffffffffffffffffffffffffffffffffffffff1614156129f7576040517f08c379a00000000000000000000000000000000000000000000000000000000081526004016129ee90613b23565b60405180910390fd5b612a00816120eb565b15612a40576040517f08c379a0000000000000000000000000000000000000000000000000000000008152600401612a3790613a43565b60405180910390fd5b612a4c60008383612790565b6001600360008473ffffffffffffffffffffffffffffffffffffffff1673ffffffffffffffffffffffffffffffffffffffff1681526020019081526020016000206000828254612a9c9190613d55565b92505081905550816002600083815260200190815260200160002060006101000a81548173ffffffffffffffffffffffffffffffffffffffff021916908373ffffffffffffffffffffffffffffffffffffffff160217905550808273ffffffffffffffffffffffffffffffffffffffff16600073ffffffffffffffffffffffffffffffffffffffff167fddf252ad1be2c89b69c2b068fc378daa952ba7f163c4a11628f55a4df523b3ef60405160405180910390a45050565b600080823b905060008111915050919050565b6040518060a001604052806000815260200160008152602001600073ffffffffffffffffffffffffffffffffffffffff168152602001600081526020016000151581525090565b6040518060c001604052806060815260200160608152602001600073ffffffffffffffffffffffffffffffffffffffff1681526020016000815260200160008152602001600081525090565b828054612c0790613ed8565b90600052602060002090601f016020900481019282612c295760008555612c70565b82601f10612c4257805160ff1916838001178555612c70565b82800160010185558215612c70579182015b82811115612c6f578251825591602001919060010190612c54565b5b509050612c7d9190612c81565b5090565b5b80821115612c9a576000816000905550600101612c82565b5090565b6000612cb1612cac84613c2f565b613bfe565b905082815260208101848484011115612cc957600080fd5b612cd4848285613e96565b509392505050565b6000612cef612cea84613c5f565b613bfe565b905082815260208101848484011115612d0757600080fd5b612d12848285613e96565b509392505050565b600081359050612d2981614051565b92915050565b600081359050612d3e81614068565b92915050565b600081359050612d538161407f565b92915050565b600081519050612d688161407f565b92915050565b600082601f830112612d7f57600080fd5b8135612d8f848260208601612c9e565b91505092915050565b600082601f830112612da957600080fd5b8135612db9848260208601612cdc565b91505092915050565b600081359050612dd181614096565b92915050565b600060208284031215612de957600080fd5b6000612df784828501612d1a565b91505092915050565b60008060408385031215612e1357600080fd5b6000612e2185828601612d1a565b9250506020612e3285828601612d1a565b9150509250929050565b600080600060608486031215612e5157600080fd5b6000612e5f86828701612d1a565b9350506020612e7086828701612d1a565b9250506040612e8186828701612dc2565b9150509250925092565b60008060008060808587031215612ea157600080fd5b6000612eaf87828801612d1a565b9450506020612ec087828801612d1a565b9350506040612ed187828801612dc2565b925050606085013567ffffffffffffffff811115612eee57600080fd5b612efa87828801612d6e565b91505092959194509250565b60008060408385031215612f1957600080fd5b6000612f2785828601612d1a565b9250506020612f3885828601612d2f565b9150509250929050565b60008060408385031215612f5557600080fd5b6000612f6385828601612d1a565b9250506020612f7485828601612dc2565b9150509250929050565b600060208284031215612f9057600080fd5b6000612f9e84828501612d44565b91505092915050565b600060208284031215612fb957600080fd5b6000612fc784828501612d59565b91505092915050565b60008060008060808587031215612fe657600080fd5b600085013567ffffffffffffffff81111561300057600080fd5b61300c87828801612d98565b945050602085013567ffffffffffffffff81111561302957600080fd5b61303587828801612d98565b935050604061304687828801612dc2565b925050606061305787828801612dc2565b91505092959194509250565b60006020828403121561307557600080fd5b600061308384828501612dc2565b91505092915050565b6000806040838503121561309f57600080fd5b60006130ad85828601612dc2565b92505060206130be85828601612dc2565b9150509250929050565b60006130d48383613801565b905092915050565b60006130e88383613891565b60a08301905092915050565b6130fd81613e22565b82525050565b61310c81613e10565b82525050565b600061311d82613caf565b6131278185613cf5565b93508360208202850161313985613c8f565b8060005b85811015613175578484038952815161315685826130c8565b945061316183613cdb565b925060208a0199505060018101905061313d565b50829750879550505050505092915050565b600061319282613cba565b61319c8185613d06565b93506131a783613c9f565b8060005b838110156131d85781516131bf88826130dc565b97506131ca83613ce8565b9250506001810190506131ab565b5085935050505092915050565b6131ee81613e34565b82525050565b6131fd81613e34565b82525050565b600061320e82613cc5565b6132188185613d17565b9350613228818560208601613ea5565b61323181614040565b840191505092915050565b600061324782613cd0565b6132518185613d28565b9350613261818560208601613ea5565b61326a81614040565b840191505092915050565b600061328082613cd0565b61328a8185613d39565b935061329a818560208601613ea5565b6132a381614040565b840191505092915050565b60006132b982613cd0565b6132c38185613d4a565b93506132d3818560208601613ea5565b80840191505092915050565b60006132ec603283613d39565b91507f4552433732313a207472616e7366657220746f206e6f6e20455243373231526560008301527f63656976657220696d706c656d656e74657200000000000000000000000000006020830152604082019050919050565b6000613352601c83613d39565b91507f4552433732313a20746f6b656e20616c7265616479206d696e746564000000006000830152602082019050919050565b6000613392602483613d39565b91507f4552433732313a207472616e7366657220746f20746865207a65726f2061646460008301527f72657373000000000000000000000000000000000000000000000000000000006020830152604082019050919050565b60006133f8601983613d39565b91507f4552433732313a20617070726f766520746f2063616c6c6572000000000000006000830152602082019050919050565b6000613438602c83613d39565b91507f4552433732313a206f70657261746f7220717565727920666f72206e6f6e657860008301527f697374656e7420746f6b656e00000000000000000000000000000000000000006020830152604082019050919050565b600061349e603883613d39565b91507f4552433732313a20617070726f76652063616c6c6572206973206e6f74206f7760008301527f6e6572206e6f7220617070726f76656420666f7220616c6c00000000000000006020830152604082019050919050565b6000613504602a83613d39565b91507f4552433732313a2062616c616e636520717565727920666f7220746865207a6560008301527f726f2061646472657373000000000000000000000000000000000000000000006020830152604082019050919050565b600061356a602983613d39565b91507f4552433732313a206f776e657220717565727920666f72206e6f6e657869737460008301527f656e7420746f6b656e00000000000000000000000000000000000000000000006020830152604082019050919050565b60006135d0602083613d39565b91507f4552433732313a206d696e7420746f20746865207a65726f20616464726573736000830152602082019050919050565b6000613610602c83613d39565b91507f4552433732313a20617070726f76656420717565727920666f72206e6f6e657860008301527f697374656e7420746f6b656e00000000000000000000000000000000000000006020830152604082019050919050565b6000613676602983613d39565b91507f4552433732313a207472616e73666572206f6620746f6b656e2074686174206960008301527f73206e6f74206f776e00000000000000000000000000000000000000000000006020830152604082019050919050565b60006136dc602f83613d39565b91507f4552433732314d657461646174613a2055524920717565727920666f72206e6f60008301527f6e6578697374656e7420746f6b656e00000000000000000000000000000000006020830152604082019050919050565b6000613742602183613d39565b91507f4552433732313a20617070726f76616c20746f2063757272656e74206f776e6560008301527f72000000000000000000000000000000000000000000000000000000000000006020830152604082019050919050565b60006137a8603183613d39565b91507f4552433732313a207472616e736665722063616c6c6572206973206e6f74206f60008301527f776e6572206e6f7220617070726f7665640000000000000000000000000000006020830152604082019050919050565b600060c083016000830151848203600086015261381e828261323c565b91505060208301518482036020860152613838828261323c565b915050604083015161384d60408601826130f4565b50606083015161386060608601826138f9565b50608083015161387360808601826138f9565b5060a083015161388660a08601826138f9565b508091505092915050565b60a0820160008201516138a760008501826138f9565b5060208201516138ba60208501826138f9565b5060408201516138cd60408501826130f4565b5060608201516138e060608501826138f9565b5060808201516138f360808501826131e5565b50505050565b61390281613e8c565b82525050565b61391181613e8c565b82525050565b600061392382856132ae565b915061392f82846132ae565b91508190509392505050565b60006020820190506139506000830184613103565b92915050565b600060808201905061396b6000830187613103565b6139786020830186613103565b6139856040830185613908565b81810360608301526139978184613203565b905095945050505050565b600060208201905081810360008301526139bc8184613112565b905092915050565b600060208201905081810360008301526139de8184613187565b905092915050565b60006020820190506139fb60008301846131f4565b92915050565b60006020820190508181036000830152613a1b8184613275565b905092915050565b60006020820190508181036000830152613a3c816132df565b9050919050565b60006020820190508181036000830152613a5c81613345565b9050919050565b60006020820190508181036000830152613a7c81613385565b9050919050565b60006020820190508181036000830152613a9c816133eb565b9050919050565b60006020820190508181036000830152613abc8161342b565b9050919050565b60006020820190508181036000830152613adc81613491565b9050919050565b60006020820190508181036000830152613afc816134f7565b9050919050565b60006020820190508181036000830152613b1c8161355d565b9050919050565b60006020820190508181036000830152613b3c816135c3565b9050919050565b60006020820190508181036000830152613b5c81613603565b9050919050565b60006020820190508181036000830152613b7c81613669565b9050919050565b60006020820190508181036000830152613b9c816136cf565b9050919050565b60006020820190508181036000830152613bbc81613735565b9050919050565b60006020820190508181036000830152613bdc8161379b565b9050919050565b6000602082019050613bf86000830184613908565b92915050565b6000604051905081810181811067ffffffffffffffff82111715613c2557613c24614011565b5b8060405250919050565b600067ffffffffffffffff821115613c4a57613c49614011565b5b601f19601f8301169050602081019050919050565b600067ffffffffffffffff821115613c7a57613c79614011565b5b601f19601f8301169050602081019050919050565b6000819050602082019050919050565b6000819050602082019050919050565b600081519050919050565b600081519050919050565b600081519050919050565b600081519050919050565b6000602082019050919050565b6000602082019050919050565b600082825260208201905092915050565b600082825260208201905092915050565b600082825260208201905092915050565b600082825260208201905092915050565b600082825260208201905092915050565b600081905092915050565b6000613d6082613e8c565b9150613d6b83613e8c565b9250827fffffffffffffffffffffffffffffffffffffffffffffffffffffffffffffffff03821115613da057613d9f613f84565b5b828201905092915050565b6000613db682613e8c565b9150613dc183613e8c565b925082613dd157613dd0613fb3565b5b828204905092915050565b6000613de782613e8c565b9150613df283613e8c565b925082821015613e0557613e04613f84565b5b828203905092915050565b6000613e1b82613e6c565b9050919050565b6000613e2d82613e6c565b9050919050565b60008115159050919050565b60007fffffffff0000000000000000000000000000000000000000000000000000000082169050919050565b600073ffffffffffffffffffffffffffffffffffffffff82169050919050565b6000819050919050565b82818337600083830152505050565b60005b83811015613ec3578082015181840152602081019050613ea8565b83811115613ed2576000848401525b50505050565b60006002820490506001821680613ef057607f821691505b60208210811415613f0457613f03613fe2565b5b50919050565b6000613f1582613e8c565b91507fffffffffffffffffffffffffffffffffffffffffffffffffffffffffffffffff821415613f4857613f47613f84565b5b600182019050919050565b6000613f5e82613e8c565b9150613f6983613e8c565b925082613f7957613f78613fb3565b5b828206905092915050565b7f4e487b7100000000000000000000000000000000000000000000000000000000600052601160045260246000fd5b7f4e487b7100000000000000000000000000000000000000000000000000000000600052601260045260246000fd5b7f4e487b7100000000000000000000000000000000000000000000000000000000600052602260045260246000fd5b7f4e487b7100000000000000000000000000000000000000000000000000000000600052604160045260246000fd5b6000601f19601f8301169050919050565b61405a81613e10565b811461406557600080fd5b50565b61407181613e34565b811461407c57600080fd5b50565b61408881613e40565b811461409357600080fd5b50565b61409f81613e8c565b81146140aa57600080fd5b5056fea2646970667358221220e2ea1efba5c7c5dbc326e481afc2377977c45d1425db5b3ef79a37e1d50db3fa64736f6c63430008000033",
  "immutableReferences": {},
  "source": "// SPDX-License-Identifier: MIT\r\npragma solidity ^0.8.0;\r\n\r\nimport \"@openzeppelin/contracts/token/ERC721/ERC721.sol\";\r\n\r\n\r\n\r\n\r\n\r\n\r\n/*\r\nNOT IN USE!\r\nNOT IN USE!\r\nNOT IN USE!\r\nNOT IN USE!\r\nNOT IN USE!\r\n\r\nBasically the same thing as EventMain.sol, the only difference is that it's using mappings instead of arrays.\r\nThe only purpuse is to compare gas fees\r\n\r\nNOT IN USE!\r\nNOT IN USE!\r\nNOT IN USE!\r\nNOT IN USE!\r\nNOT IN USE!\r\n*/\r\n\r\n\r\n\r\n\r\n\r\ncontract EventMainWithMappings is ERC721{\r\n    constructor() ERC721(\"Event\", \"EVT\"){\r\n    }\r\n    uint ticketCount;\r\n    uint eventCount;\r\n    mapping(uint => Ticket) tickets;\r\n    mapping(uint => Event) events;\r\n\r\n    struct Ticket{\r\n        uint evtId;\r\n        uint number;\r\n        address payable owner;\r\n        uint256 price;\r\n        bool forSale;\r\n    }\r\n\r\n    struct Event{\r\n        string title;\r\n        string description;\r\n        address payable creator;\r\n        uint amount;\r\n        uint remainingAmount;\r\n        uint256 price;\r\n    }\r\n\r\n\r\n    function createEvent(string memory _title, string memory _description, uint _amount, uint256 _price) public {\r\n        Event memory evt = Event(_title, _description, payable(msg.sender), _amount, _amount, _price);\r\n        events[eventCount] = evt;\r\n        eventCount+=1;\r\n    }\r\n\r\n    //returns all Events, NOT Tickets\r\n    function getEvents() public view returns (Event[] memory evt){\r\n        Event[] memory allEvents = new Event[](eventCount);\r\n        for (uint i=0; i<eventCount; i++) {\r\n            allEvents[i] = events[i];\r\n        }\r\n        return allEvents;\r\n    }\r\n\r\n    //returns all minted Tickets\r\n    function getTickets() public view returns (Ticket[] memory ticket){\r\n        Ticket[] memory allTickets = new Ticket[](ticketCount);\r\n        for (uint i=0; i<ticketCount; i++) {\r\n            allTickets[i] = tickets[i];\r\n        }\r\n        return allTickets;\r\n    }\r\n\r\n    //returns all minted Tickets\r\n    function getTicketsForSale() public view returns (Ticket[] memory ticket){\r\n        //memory doesn't allow dynamic arrays, so this is the best we can do :(\r\n        Ticket[] memory ticketsForSale = new Ticket[](ticketCount);\r\n        uint count = 0;\r\n        for (uint i=0; i<ticketCount; i++) {\r\n            if(tickets[i].forSale){\r\n                ticketsForSale[count] = tickets[i];    \r\n                ++count;\r\n            }\r\n        }\r\n        return ticketsForSale;\r\n    }\r\n\r\n    //returns all Tickets the sender owns\r\n    function getMyTickets() public view returns (Ticket[] memory ticket){\r\n        Ticket[] memory ticketsFrom = new Ticket[](ticketCount);\r\n        uint count = 0;\r\n        for (uint i=0; i<ticketCount; i++) {\r\n            if(tickets[i].owner == msg.sender){\r\n                ticketsFrom[count] = tickets[i];    \r\n                ++count;\r\n            }\r\n        }\r\n        return ticketsFrom;\r\n    }\r\n\r\n    //purchase a Ticket that matches with Event-ID\r\n    function buyTicket(uint evtId) public payable{\r\n        require(evtId < eventCount && evtId >= 0);\r\n        \r\n        Event memory evt = events[evtId];\r\n        require(msg.value >= evt.price);\r\n        require(evt.remainingAmount > 0);\r\n\r\n        uint ticketNumber = evt.amount - evt.remainingAmount + 1;\r\n        evt.remainingAmount -=1;\r\n        events[eventCount] = evt;\r\n        Ticket memory newTicket = Ticket(evtId, ticketNumber, payable(msg.sender), 0, false);\r\n        tickets[ticketCount] = newTicket;\r\n        //mint Ticket to buyers address\r\n        _safeMint(msg.sender, ticketCount);\r\n        ticketCount +=1;\r\n        //send the creator the transmitted money\r\n        evt.creator.transfer(msg.value);\r\n    }\r\n    \r\n    function buyTicketFromMarket(uint ticketId) public payable{\r\n        require(ticketId < ticketCount && ticketId >= 0);\r\n\r\n        Ticket memory ticket = tickets[ticketId];\r\n\r\n        // require(ticket.forSale==true);\r\n        require(msg.value >= ticket.price);\r\n\r\n        // Event memory evt = events[ticketIdToEventId[ticketId]];\r\n        // uint creatorFee = msg.value * 0.1;\r\n        // evt.creator.transfer(creatorFee);\r\n        ticket.owner.transfer(msg.value);\r\n        _transfer(ticket.owner, msg.sender, ticketId);\r\n        ticket.owner=payable(msg.sender);\r\n        tickets[ticketId] = ticket;\r\n    }\r\n\r\n    function startSellingTicket(uint _ticketId, uint _price) public{\r\n        require(_ticketId < ticketCount && _ticketId >= 0);\r\n        Ticket memory ticket = tickets[_ticketId];\r\n        ticket.forSale = true;\r\n        ticket.price = _price;\r\n        tickets[_ticketId] = ticket;\r\n    }\r\n\r\n    function stopSellingTicket(uint _ticketId) public{\r\n        require(_ticketId < ticketCount && _ticketId >= 0);\r\n        Ticket memory ticket = tickets[_ticketId];\r\n        ticket.forSale = true;\r\n        ticket.price = 0;\r\n        tickets[_ticketId] = ticket;\r\n    }\r\n}",
  "sourcePath": "C:/Users/Simon/projects/event/app/contracts/EventMainWithMappings.sol",
  "compiler": {
    "name": "solc",
    "version": "0.8.0+commit.c7dfd78e.Emscripten.clang"
  },
  "schemaVersion": "3.3.4",
  "updatedAt": "2021-05-01T17:16:19.762Z",
  "devdoc": {
    "kind": "dev",
    "methods": {
      "approve(address,uint256)": {
        "details": "See {IERC721-approve}."
      },
      "balanceOf(address)": {
        "details": "See {IERC721-balanceOf}."
      },
      "getApproved(uint256)": {
        "details": "See {IERC721-getApproved}."
      },
      "isApprovedForAll(address,address)": {
        "details": "See {IERC721-isApprovedForAll}."
      },
      "name()": {
        "details": "See {IERC721Metadata-name}."
      },
      "ownerOf(uint256)": {
        "details": "See {IERC721-ownerOf}."
      },
      "safeTransferFrom(address,address,uint256)": {
        "details": "See {IERC721-safeTransferFrom}."
      },
      "safeTransferFrom(address,address,uint256,bytes)": {
        "details": "See {IERC721-safeTransferFrom}."
      },
      "setApprovalForAll(address,bool)": {
        "details": "See {IERC721-setApprovalForAll}."
      },
      "supportsInterface(bytes4)": {
        "details": "See {IERC165-supportsInterface}."
      },
      "symbol()": {
        "details": "See {IERC721Metadata-symbol}."
      },
      "tokenURI(uint256)": {
        "details": "See {IERC721Metadata-tokenURI}."
      },
      "transferFrom(address,address,uint256)": {
        "details": "See {IERC721-transferFrom}."
      }
    },
    "version": 1
  },
  "userdoc": {
    "kind": "user",
    "methods": {},
    "version": 1
  }
}