{
  "contractName": "EventMain",
  "abi": [
    {
      "inputs": [],
      "stateMutability": "nonpayable",
      "type": "constructor"
    },
    {
      "anonymous": false,
      "inputs": [
        {
          "indexed": true,
          "internalType": "address",
          "name": "owner",
          "type": "address"
        },
        {
          "indexed": true,
          "internalType": "address",
          "name": "approved",
          "type": "address"
        },
        {
          "indexed": true,
          "internalType": "uint256",
          "name": "tokenId",
          "type": "uint256"
        }
      ],
      "name": "Approval",
      "type": "event"
    },
    {
      "anonymous": false,
      "inputs": [
        {
          "indexed": true,
          "internalType": "address",
          "name": "owner",
          "type": "address"
        },
        {
          "indexed": true,
          "internalType": "address",
          "name": "operator",
          "type": "address"
        },
        {
          "indexed": false,
          "internalType": "bool",
          "name": "approved",
          "type": "bool"
        }
      ],
      "name": "ApprovalForAll",
      "type": "event"
    },
    {
      "anonymous": false,
      "inputs": [
        {
          "indexed": false,
          "internalType": "address payable",
          "name": "addr1",
          "type": "address"
        },
        {
          "indexed": false,
          "internalType": "address payable",
          "name": "addr2",
          "type": "address"
        }
      ],
      "name": "CoolEvent",
      "type": "event"
    },
    {
      "anonymous": false,
      "inputs": [
        {
          "indexed": true,
          "internalType": "address",
          "name": "from",
          "type": "address"
        },
        {
          "indexed": true,
          "internalType": "address",
          "name": "to",
          "type": "address"
        },
        {
          "indexed": true,
          "internalType": "uint256",
          "name": "tokenId",
          "type": "uint256"
        }
      ],
      "name": "Transfer",
      "type": "event"
    },
    {
      "inputs": [
        {
          "internalType": "address",
          "name": "to",
          "type": "address"
        },
        {
          "internalType": "uint256",
          "name": "tokenId",
          "type": "uint256"
        }
      ],
      "name": "approve",
      "outputs": [],
      "stateMutability": "nonpayable",
      "type": "function"
    },
    {
      "inputs": [
        {
          "internalType": "address",
          "name": "owner",
          "type": "address"
        }
      ],
      "name": "balanceOf",
      "outputs": [
        {
          "internalType": "uint256",
          "name": "",
          "type": "uint256"
        }
      ],
      "stateMutability": "view",
      "type": "function",
      "constant": true
    },
    {
      "inputs": [
        {
          "internalType": "uint256",
          "name": "",
          "type": "uint256"
        }
      ],
      "name": "events",
      "outputs": [
        {
          "internalType": "string",
          "name": "title",
          "type": "string"
        },
        {
          "internalType": "string",
          "name": "description",
          "type": "string"
        },
        {
          "internalType": "string",
          "name": "date",
          "type": "string"
        },
        {
          "internalType": "address payable",
          "name": "creator",
          "type": "address"
        },
        {
          "internalType": "uint256",
          "name": "amount",
          "type": "uint256"
        },
        {
          "internalType": "uint256",
          "name": "remainingAmount",
          "type": "uint256"
        },
        {
          "internalType": "uint256",
          "name": "price",
          "type": "uint256"
        }
      ],
      "stateMutability": "view",
      "type": "function",
      "constant": true
    },
    {
      "inputs": [
        {
          "internalType": "uint256",
          "name": "tokenId",
          "type": "uint256"
        }
      ],
      "name": "getApproved",
      "outputs": [
        {
          "internalType": "address",
          "name": "",
          "type": "address"
        }
      ],
      "stateMutability": "view",
      "type": "function",
      "constant": true
    },
    {
      "inputs": [
        {
          "internalType": "address",
          "name": "owner",
          "type": "address"
        },
        {
          "internalType": "address",
          "name": "operator",
          "type": "address"
        }
      ],
      "name": "isApprovedForAll",
      "outputs": [
        {
          "internalType": "bool",
          "name": "",
          "type": "bool"
        }
      ],
      "stateMutability": "view",
      "type": "function",
      "constant": true
    },
    {
      "inputs": [],
      "name": "name",
      "outputs": [
        {
          "internalType": "string",
          "name": "",
          "type": "string"
        }
      ],
      "stateMutability": "view",
      "type": "function",
      "constant": true
    },
    {
      "inputs": [
        {
          "internalType": "uint256",
          "name": "tokenId",
          "type": "uint256"
        }
      ],
      "name": "ownerOf",
      "outputs": [
        {
          "internalType": "address",
          "name": "",
          "type": "address"
        }
      ],
      "stateMutability": "view",
      "type": "function",
      "constant": true
    },
    {
      "inputs": [
        {
          "internalType": "address",
          "name": "from",
          "type": "address"
        },
        {
          "internalType": "address",
          "name": "to",
          "type": "address"
        },
        {
          "internalType": "uint256",
          "name": "tokenId",
          "type": "uint256"
        }
      ],
      "name": "safeTransferFrom",
      "outputs": [],
      "stateMutability": "nonpayable",
      "type": "function"
    },
    {
      "inputs": [
        {
          "internalType": "address",
          "name": "from",
          "type": "address"
        },
        {
          "internalType": "address",
          "name": "to",
          "type": "address"
        },
        {
          "internalType": "uint256",
          "name": "tokenId",
          "type": "uint256"
        },
        {
          "internalType": "bytes",
          "name": "_data",
          "type": "bytes"
        }
      ],
      "name": "safeTransferFrom",
      "outputs": [],
      "stateMutability": "nonpayable",
      "type": "function"
    },
    {
      "inputs": [
        {
          "internalType": "address",
          "name": "operator",
          "type": "address"
        },
        {
          "internalType": "bool",
          "name": "approved",
          "type": "bool"
        }
      ],
      "name": "setApprovalForAll",
      "outputs": [],
      "stateMutability": "nonpayable",
      "type": "function"
    },
    {
      "inputs": [
        {
          "internalType": "bytes4",
          "name": "interfaceId",
          "type": "bytes4"
        }
      ],
      "name": "supportsInterface",
      "outputs": [
        {
          "internalType": "bool",
          "name": "",
          "type": "bool"
        }
      ],
      "stateMutability": "view",
      "type": "function",
      "constant": true
    },
    {
      "inputs": [],
      "name": "symbol",
      "outputs": [
        {
          "internalType": "string",
          "name": "",
          "type": "string"
        }
      ],
      "stateMutability": "view",
      "type": "function",
      "constant": true
    },
    {
      "inputs": [
        {
          "internalType": "uint256",
          "name": "",
          "type": "uint256"
        }
      ],
      "name": "tickets",
      "outputs": [
        {
          "internalType": "uint256",
          "name": "evtId",
          "type": "uint256"
        },
        {
          "internalType": "uint256",
          "name": "number",
          "type": "uint256"
        },
        {
          "internalType": "address payable",
          "name": "owner",
          "type": "address"
        },
        {
          "internalType": "uint256",
          "name": "price",
          "type": "uint256"
        },
        {
          "internalType": "bool",
          "name": "forSale",
          "type": "bool"
        }
      ],
      "stateMutability": "view",
      "type": "function",
      "constant": true
    },
    {
      "inputs": [
        {
          "internalType": "uint256",
          "name": "tokenId",
          "type": "uint256"
        }
      ],
      "name": "tokenURI",
      "outputs": [
        {
          "internalType": "string",
          "name": "",
          "type": "string"
        }
      ],
      "stateMutability": "view",
      "type": "function",
      "constant": true
    },
    {
      "inputs": [
        {
          "internalType": "address",
          "name": "from",
          "type": "address"
        },
        {
          "internalType": "address",
          "name": "to",
          "type": "address"
        },
        {
          "internalType": "uint256",
          "name": "tokenId",
          "type": "uint256"
        }
      ],
      "name": "transferFrom",
      "outputs": [],
      "stateMutability": "nonpayable",
      "type": "function"
    },
    {
      "inputs": [
        {
          "internalType": "string",
          "name": "_title",
          "type": "string"
        },
        {
          "internalType": "string",
          "name": "_description",
          "type": "string"
        },
        {
          "internalType": "string",
          "name": "_date",
          "type": "string"
        },
        {
          "internalType": "uint256",
          "name": "_amount",
          "type": "uint256"
        },
        {
          "internalType": "uint256",
          "name": "_price",
          "type": "uint256"
        }
      ],
      "name": "createEvent",
      "outputs": [],
      "stateMutability": "nonpayable",
      "type": "function"
    },
    {
      "inputs": [],
      "name": "getEvents",
      "outputs": [
        {
          "components": [
            {
              "internalType": "string",
              "name": "title",
              "type": "string"
            },
            {
              "internalType": "string",
              "name": "description",
              "type": "string"
            },
            {
              "internalType": "string",
              "name": "date",
              "type": "string"
            },
            {
              "internalType": "address payable",
              "name": "creator",
              "type": "address"
            },
            {
              "internalType": "uint256",
              "name": "amount",
              "type": "uint256"
            },
            {
              "internalType": "uint256",
              "name": "remainingAmount",
              "type": "uint256"
            },
            {
              "internalType": "uint256",
              "name": "price",
              "type": "uint256"
            }
          ],
          "internalType": "struct EventMain.Event[]",
          "name": "_event",
          "type": "tuple[]"
        }
      ],
      "stateMutability": "view",
      "type": "function",
      "constant": true
    },
    {
      "inputs": [
        {
          "internalType": "uint256",
          "name": "_evtId",
          "type": "uint256"
        }
      ],
      "name": "getEvent",
      "outputs": [
        {
          "components": [
            {
              "internalType": "string",
              "name": "title",
              "type": "string"
            },
            {
              "internalType": "string",
              "name": "description",
              "type": "string"
            },
            {
              "internalType": "string",
              "name": "date",
              "type": "string"
            },
            {
              "internalType": "address payable",
              "name": "creator",
              "type": "address"
            },
            {
              "internalType": "uint256",
              "name": "amount",
              "type": "uint256"
            },
            {
              "internalType": "uint256",
              "name": "remainingAmount",
              "type": "uint256"
            },
            {
              "internalType": "uint256",
              "name": "price",
              "type": "uint256"
            }
          ],
          "internalType": "struct EventMain.Event",
          "name": "",
          "type": "tuple"
        }
      ],
      "stateMutability": "view",
      "type": "function",
      "constant": true
    },
    {
      "inputs": [],
      "name": "getTickets",
      "outputs": [
        {
          "components": [
            {
              "internalType": "uint256",
              "name": "evtId",
              "type": "uint256"
            },
            {
              "internalType": "uint256",
              "name": "number",
              "type": "uint256"
            },
            {
              "internalType": "address payable",
              "name": "owner",
              "type": "address"
            },
            {
              "internalType": "uint256",
              "name": "price",
              "type": "uint256"
            },
            {
              "internalType": "bool",
              "name": "forSale",
              "type": "bool"
            }
          ],
          "internalType": "struct EventMain.Ticket[]",
          "name": "ticket",
          "type": "tuple[]"
        }
      ],
      "stateMutability": "view",
      "type": "function",
      "constant": true
    },
    {
      "inputs": [],
      "name": "getTicketsForSale",
      "outputs": [
        {
          "components": [
            {
              "internalType": "uint256",
              "name": "evtId",
              "type": "uint256"
            },
            {
              "internalType": "uint256",
              "name": "number",
              "type": "uint256"
            },
            {
              "internalType": "address payable",
              "name": "owner",
              "type": "address"
            },
            {
              "internalType": "uint256",
              "name": "price",
              "type": "uint256"
            },
            {
              "internalType": "bool",
              "name": "forSale",
              "type": "bool"
            }
          ],
          "internalType": "struct EventMain.Ticket[]",
          "name": "ticket",
          "type": "tuple[]"
        }
      ],
      "stateMutability": "view",
      "type": "function",
      "constant": true
    },
    {
      "inputs": [
        {
          "internalType": "address",
          "name": "addr",
          "type": "address"
        }
      ],
      "name": "getMyTickets",
      "outputs": [
        {
          "components": [
            {
              "internalType": "uint256",
              "name": "evtId",
              "type": "uint256"
            },
            {
              "internalType": "uint256",
              "name": "number",
              "type": "uint256"
            },
            {
              "internalType": "address payable",
              "name": "owner",
              "type": "address"
            },
            {
              "internalType": "uint256",
              "name": "price",
              "type": "uint256"
            },
            {
              "internalType": "bool",
              "name": "forSale",
              "type": "bool"
            }
          ],
          "internalType": "struct EventMain.Ticket[]",
          "name": "ticket",
          "type": "tuple[]"
        }
      ],
      "stateMutability": "view",
      "type": "function",
      "constant": true
    },
    {
      "inputs": [
        {
          "internalType": "uint256",
          "name": "_evtId",
          "type": "uint256"
        }
      ],
      "name": "buyTicket",
      "outputs": [],
      "stateMutability": "payable",
      "type": "function",
      "payable": true
    },
    {
      "inputs": [
        {
          "internalType": "uint256",
          "name": "ticketId",
          "type": "uint256"
        }
      ],
      "name": "buyTicketFromMarket",
      "outputs": [],
      "stateMutability": "payable",
      "type": "function",
      "payable": true
    },
    {
      "inputs": [
        {
          "internalType": "uint256",
          "name": "_ticketId",
          "type": "uint256"
        },
        {
          "internalType": "uint256",
          "name": "_price",
          "type": "uint256"
        }
      ],
      "name": "startSellingTicket",
      "outputs": [],
      "stateMutability": "nonpayable",
      "type": "function"
    },
    {
      "inputs": [
        {
          "internalType": "uint256",
          "name": "_ticketId",
          "type": "uint256"
        }
      ],
      "name": "stopSellingTicket",
      "outputs": [],
      "stateMutability": "nonpayable",
      "type": "function"
    }
  ],
  "bytecode": "0x60806040523480156200001157600080fd5b506040518060400160405280600581526020017f4576656e740000000000000000000000000000000000000000000000000000008152506040518060400160405280600381526020017f4556540000000000000000000000000000000000000000000000000000000000815250816000908051906020019062000096929190620000b8565b508060019080519060200190620000af929190620000b8565b505050620001cd565b828054620000c69062000168565b90600052602060002090601f016020900481019282620000ea576000855562000136565b82601f106200010557805160ff191683800117855562000136565b8280016001018555821562000136579182015b828111156200013557825182559160200191906001019062000118565b5b50905062000145919062000149565b5090565b5b80821115620001645760008160009055506001016200014a565b5090565b600060028204905060018216806200018157607f821691505b602082108114156200019857620001976200019e565b5b50919050565b7f4e487b7100000000000000000000000000000000000000000000000000000000600052602260045260246000fd5b614b6980620001dd6000396000f3fe6080604052600436106101665760003560e01c80636352211e116100d157806395d89b411161008a578063b88d4fde11610064578063b88d4fde14610562578063c87b56dd1461058b578063e985e9c5146105c8578063f5f00d841461060557610166565b806395d89b41146104e557806396dab55714610510578063a22cb4651461053957610166565b80636352211e146103ac57806367dd74ca146103e95780636d1884e01461040557806370a08231146104425780637522a89f1461047f5780638aaf2686146104a857610166565b806323b872dd1161012357806323b872dd1461029857806335fe12d8146102c1578063404aa8f9146102ec57806342842e0e146103175780634ed026221461034057806350b447121461036b57610166565b806301ffc9a71461016b57806306fdde03146101a8578063081812fc146101d3578063095ea7b3146102105780630b791430146102395780632026def71461027c575b600080fd5b34801561017757600080fd5b50610192600480360381019061018d919061380c565b61062e565b60405161019f9190614373565b60405180910390f35b3480156101b457600080fd5b506101bd610710565b6040516101ca919061438e565b60405180910390f35b3480156101df57600080fd5b506101fa60048036038101906101f5919061391d565b6107a2565b60405161020791906142c8565b60405180910390f35b34801561021c57600080fd5b50610237600480360381019061023291906137d0565b610827565b005b34801561024557600080fd5b50610260600480360381019061025b919061391d565b61093f565b60405161027397969594939291906143b0565b60405180910390f35b6102966004803603810190610291919061391d565b610b49565b005b3480156102a457600080fd5b506102bf60048036038101906102ba91906136ca565b610fd2565b005b3480156102cd57600080fd5b506102d6611032565b6040516102e39190614351565b60405180910390f35b3480156102f857600080fd5b5061030161139f565b60405161030e919061432f565b60405180910390f35b34801561032357600080fd5b5061033e600480360381019061033991906136ca565b61162e565b005b34801561034c57600080fd5b5061035561164e565b6040516103629190614351565b60405180910390f35b34801561037757600080fd5b50610392600480360381019061038d919061391d565b611742565b6040516103a3959493929190614631565b60405180910390f35b3480156103b857600080fd5b506103d360048036038101906103ce919061391d565b6117b5565b6040516103e091906142c8565b60405180910390f35b61040360048036038101906103fe919061391d565b611867565b005b34801561041157600080fd5b5061042c6004803603810190610427919061391d565b611aba565b60405161043991906145f4565b60405180910390f35b34801561044e57600080fd5b5061046960048036038101906104649190613665565b611d4c565b6040516104769190614616565b60405180910390f35b34801561048b57600080fd5b506104a660048036038101906104a1919061391d565b611e04565b005b3480156104b457600080fd5b506104cf60048036038101906104ca9190613665565b611f32565b6040516104dc9190614351565b60405180910390f35b3480156104f157600080fd5b506104fa6122e1565b604051610507919061438e565b60405180910390f35b34801561051c57600080fd5b5061053760048036038101906105329190613946565b612373565b005b34801561054557600080fd5b50610560600480360381019061055b9190613794565b6124ab565b005b34801561056e57600080fd5b5061058960048036038101906105849190613719565b61262c565b005b34801561059757600080fd5b506105b260048036038101906105ad919061391d565b61268e565b6040516105bf919061438e565b60405180910390f35b3480156105d457600080fd5b506105ef60048036038101906105ea919061368e565b612735565b6040516105fc9190614373565b60405180910390f35b34801561061157600080fd5b5061062c6004803603810190610627919061385e565b6127c9565b005b60007f80ac58cd000000000000000000000000000000000000000000000000000000007bffffffffffffffffffffffffffffffffffffffffffffffffffffffff1916827bffffffffffffffffffffffffffffffffffffffffffffffffffffffff191614806106f957507f5b5e139f000000000000000000000000000000000000000000000000000000007bffffffffffffffffffffffffffffffffffffffffffffffffffffffff1916827bffffffffffffffffffffffffffffffffffffffffffffffffffffffff1916145b80610709575061070882612908565b5b9050919050565b60606000805461071f9061495e565b80601f016020809104026020016040519081016040528092919081815260200182805461074b9061495e565b80156107985780601f1061076d57610100808354040283529160200191610798565b820191906000526020600020905b81548152906001019060200180831161077b57829003601f168201915b5050505050905090565b60006107ad82612972565b6107ec576040517f08c379a00000000000000000000000000000000000000000000000000000000081526004016107e390614554565b60405180910390fd5b6004600083815260200190815260200160002060009054906101000a900473ffffffffffffffffffffffffffffffffffffffff169050919050565b6000610832826117b5565b90508073ffffffffffffffffffffffffffffffffffffffff168373ffffffffffffffffffffffffffffffffffffffff1614156108a3576040517f08c379a000000000000000000000000000000000000000000000000000000000815260040161089a906145b4565b60405180910390fd5b8073ffffffffffffffffffffffffffffffffffffffff166108c26129de565b73ffffffffffffffffffffffffffffffffffffffff1614806108f157506108f0816108eb6129de565b612735565b5b610930576040517f08c379a0000000000000000000000000000000000000000000000000000000008152600401610927906144d4565b60405180910390fd5b61093a83836129e6565b505050565b6007818154811061094f57600080fd5b90600052602060002090600702016000915090508060000180546109729061495e565b80601f016020809104026020016040519081016040528092919081815260200182805461099e9061495e565b80156109eb5780601f106109c0576101008083540402835291602001916109eb565b820191906000526020600020905b8154815290600101906020018083116109ce57829003601f168201915b505050505090806001018054610a009061495e565b80601f0160208091040260200160405190810160405280929190818152602001828054610a2c9061495e565b8015610a795780601f10610a4e57610100808354040283529160200191610a79565b820191906000526020600020905b815481529060010190602001808311610a5c57829003601f168201915b505050505090806002018054610a8e9061495e565b80601f0160208091040260200160405190810160405280929190818152602001828054610aba9061495e565b8015610b075780601f10610adc57610100808354040283529160200191610b07565b820191906000526020600020905b815481529060010190602001808311610aea57829003601f168201915b5050505050908060030160009054906101000a900473ffffffffffffffffffffffffffffffffffffffff16908060040154908060050154908060060154905087565b60068054905081108015610b5e575060008110155b610b6757600080fd5b600060068281548110610ba3577f4e487b7100000000000000000000000000000000000000000000000000000000600052603260045260246000fd5b90600052602060002090600502019050600115158160040160009054906101000a900460ff16151514610bd557600080fd5b8060030154341015610be657600080fd5b60006007826000015481548110610c26577f4e487b7100000000000000000000000000000000000000000000000000000000600052603260045260246000fd5b90600052602060002090600702016040518060e0016040529081600082018054610c4f9061495e565b80601f0160208091040260200160405190810160405280929190818152602001828054610c7b9061495e565b8015610cc85780601f10610c9d57610100808354040283529160200191610cc8565b820191906000526020600020905b815481529060010190602001808311610cab57829003601f168201915b50505050508152602001600182018054610ce19061495e565b80601f0160208091040260200160405190810160405280929190818152602001828054610d0d9061495e565b8015610d5a5780601f10610d2f57610100808354040283529160200191610d5a565b820191906000526020600020905b815481529060010190602001808311610d3d57829003601f168201915b50505050508152602001600282018054610d739061495e565b80601f0160208091040260200160405190810160405280929190818152602001828054610d9f9061495e565b8015610dec5780601f10610dc157610100808354040283529160200191610dec565b820191906000526020600020905b815481529060010190602001808311610dcf57829003601f168201915b505050505081526020016003820160009054906101000a900473ffffffffffffffffffffffffffffffffffffffff1673ffffffffffffffffffffffffffffffffffffffff1673ffffffffffffffffffffffffffffffffffffffff168152602001600482015481526020016005820154815260200160068201548152505090506000600a34610e7a9190614831565b9050816060015173ffffffffffffffffffffffffffffffffffffffff166108fc829081150290604051600060405180830381858888f19350505050158015610ec6573d6000803e3d6000fd5b508260020160009054906101000a900473ffffffffffffffffffffffffffffffffffffffff1673ffffffffffffffffffffffffffffffffffffffff166108fc8234610f119190614862565b9081150290604051600060405180830381858888f19350505050158015610f3c573d6000803e3d6000fd5b50610f6c8360020160009054906101000a900473ffffffffffffffffffffffffffffffffffffffff163386612a9f565b338360020160006101000a81548173ffffffffffffffffffffffffffffffffffffffff021916908373ffffffffffffffffffffffffffffffffffffffff16021790555060008360040160006101000a81548160ff02191690831515021790555050505050565b610fe3610fdd6129de565b82612cfb565b611022576040517f08c379a0000000000000000000000000000000000000000000000000000000008152600401611019906145d4565b60405180910390fd5b61102d838383612a9f565b505050565b6060600060068054905067ffffffffffffffff81111561107b577f4e487b7100000000000000000000000000000000000000000000000000000000600052604160045260246000fd5b6040519080825280602002602001820160405280156110b457816020015b6110a16133ef565b8152602001906001900390816110995790505b5090506000805b600680549050811015611273576001151560068281548110611106577f4e487b7100000000000000000000000000000000000000000000000000000000600052603260045260246000fd5b906000526020600020906005020160040160009054906101000a900460ff16151514156112605760068181548110611167577f4e487b7100000000000000000000000000000000000000000000000000000000600052603260045260246000fd5b90600052602060002090600502016040518060a001604052908160008201548152602001600182015481526020016002820160009054906101000a900473ffffffffffffffffffffffffffffffffffffffff1673ffffffffffffffffffffffffffffffffffffffff1673ffffffffffffffffffffffffffffffffffffffff168152602001600382015481526020016004820160009054906101000a900460ff161515151581525050838281518110611248577f4e487b7100000000000000000000000000000000000000000000000000000000600052603260045260246000fd5b60200260200101819052508161125d90614990565b91505b808061126b90614990565b9150506110bb565b5060008167ffffffffffffffff8111156112b6577f4e487b7100000000000000000000000000000000000000000000000000000000600052604160045260246000fd5b6040519080825280602002602001820160405280156112ef57816020015b6112dc6133ef565b8152602001906001900390816112d45790505b50905060005b8281101561139557838181518110611336577f4e487b7100000000000000000000000000000000000000000000000000000000600052603260045260246000fd5b6020026020010151828281518110611377577f4e487b7100000000000000000000000000000000000000000000000000000000600052603260045260246000fd5b6020026020010181905250808061138d90614990565b9150506112f5565b5080935050505090565b606060006007805480602002602001604051908101604052809291908181526020016000905b8282101561162157838290600052602060002090600702016040518060e00160405290816000820180546113f89061495e565b80601f01602080910402602001604051908101604052809291908181526020018280546114249061495e565b80156114715780601f1061144657610100808354040283529160200191611471565b820191906000526020600020905b81548152906001019060200180831161145457829003601f168201915b5050505050815260200160018201805461148a9061495e565b80601f01602080910402602001604051908101604052809291908181526020018280546114b69061495e565b80156115035780601f106114d857610100808354040283529160200191611503565b820191906000526020600020905b8154815290600101906020018083116114e657829003601f168201915b5050505050815260200160028201805461151c9061495e565b80601f01602080910402602001604051908101604052809291908181526020018280546115489061495e565b80156115955780601f1061156a57610100808354040283529160200191611595565b820191906000526020600020905b81548152906001019060200180831161157857829003601f168201915b505050505081526020016003820160009054906101000a900473ffffffffffffffffffffffffffffffffffffffff1673ffffffffffffffffffffffffffffffffffffffff1673ffffffffffffffffffffffffffffffffffffffff1681526020016004820154815260200160058201548152602001600682015481525050815260200190600101906113c5565b5050505090508091505090565b6116498383836040518060200160405280600081525061262c565b505050565b606060006006805480602002602001604051908101604052809291908181526020016000905b8282101561173557838290600052602060002090600502016040518060a001604052908160008201548152602001600182015481526020016002820160009054906101000a900473ffffffffffffffffffffffffffffffffffffffff1673ffffffffffffffffffffffffffffffffffffffff1673ffffffffffffffffffffffffffffffffffffffff168152602001600382015481526020016004820160009054906101000a900460ff16151515158152505081526020019060010190611674565b5050505090508091505090565b6006818154811061175257600080fd5b90600052602060002090600502016000915090508060000154908060010154908060020160009054906101000a900473ffffffffffffffffffffffffffffffffffffffff16908060030154908060040160009054906101000a900460ff16905085565b6000806002600084815260200190815260200160002060009054906101000a900473ffffffffffffffffffffffffffffffffffffffff169050600073ffffffffffffffffffffffffffffffffffffffff168173ffffffffffffffffffffffffffffffffffffffff16141561185e576040517f08c379a000000000000000000000000000000000000000000000000000000000815260040161185590614514565b60405180910390fd5b80915050919050565b6007805490508110801561187c575060008110155b61188557600080fd5b6000600782815481106118c1577f4e487b7100000000000000000000000000000000000000000000000000000000600052603260045260246000fd5b9060005260206000209060070201905080600601543410156118e257600080fd5b60008160050154116118f357600080fd5b600060018260050154836004015461190b9190614862565b61191591906147db565b905060066040518060a001604052808581526020018381526020013373ffffffffffffffffffffffffffffffffffffffff16815260200184600601548152602001600015158152509080600181540180825580915050600190039060005260206000209060050201600090919091909150600082015181600001556020820151816001015560408201518160020160006101000a81548173ffffffffffffffffffffffffffffffffffffffff021916908373ffffffffffffffffffffffffffffffffffffffff1602179055506060820151816003015560808201518160040160006101000a81548160ff02191690831515021790555050506001826005016000828254611a229190614862565b9250508190555060006001600680549050611a3d9190614862565b9050611a493382612dd9565b8260030160009054906101000a900473ffffffffffffffffffffffffffffffffffffffff1673ffffffffffffffffffffffffffffffffffffffff166108fc349081150290604051600060405180830381858888f19350505050158015611ab3573d6000803e3d6000fd5b5050505050565b611ac2613436565b600060078381548110611afe577f4e487b7100000000000000000000000000000000000000000000000000000000600052603260045260246000fd5b90600052602060002090600702016040518060e0016040529081600082018054611b279061495e565b80601f0160208091040260200160405190810160405280929190818152602001828054611b539061495e565b8015611ba05780601f10611b7557610100808354040283529160200191611ba0565b820191906000526020600020905b815481529060010190602001808311611b8357829003601f168201915b50505050508152602001600182018054611bb99061495e565b80601f0160208091040260200160405190810160405280929190818152602001828054611be59061495e565b8015611c325780601f10611c0757610100808354040283529160200191611c32565b820191906000526020600020905b815481529060010190602001808311611c1557829003601f168201915b50505050508152602001600282018054611c4b9061495e565b80601f0160208091040260200160405190810160405280929190818152602001828054611c779061495e565b8015611cc45780601f10611c9957610100808354040283529160200191611cc4565b820191906000526020600020905b815481529060010190602001808311611ca757829003601f168201915b505050505081526020016003820160009054906101000a900473ffffffffffffffffffffffffffffffffffffffff1673ffffffffffffffffffffffffffffffffffffffff1673ffffffffffffffffffffffffffffffffffffffff1681526020016004820154815260200160058201548152602001600682015481525050905080915050919050565b60008073ffffffffffffffffffffffffffffffffffffffff168273ffffffffffffffffffffffffffffffffffffffff161415611dbd576040517f08c379a0000000000000000000000000000000000000000000000000000000008152600401611db4906144f4565b60405180910390fd5b600360008373ffffffffffffffffffffffffffffffffffffffff1673ffffffffffffffffffffffffffffffffffffffff168152602001908152602001600020549050919050565b60068054905081108015611e19575060008110155b611e2257600080fd5b3373ffffffffffffffffffffffffffffffffffffffff1660068281548110611e73577f4e487b7100000000000000000000000000000000000000000000000000000000600052603260045260246000fd5b906000526020600020906005020160020160009054906101000a900473ffffffffffffffffffffffffffffffffffffffff1673ffffffffffffffffffffffffffffffffffffffff1614611ec557600080fd5b600060068281548110611f01577f4e487b7100000000000000000000000000000000000000000000000000000000600052603260045260246000fd5b9060005260206000209060050201905060008160040160006101000a81548160ff0219169083151502179055505050565b6060600060068054905067ffffffffffffffff811115611f7b577f4e487b7100000000000000000000000000000000000000000000000000000000600052604160045260246000fd5b604051908082528060200260200182016040528015611fb457816020015b611fa16133ef565b815260200190600190039081611f995790505b50905060008390506000805b6006805490508110156121b2578273ffffffffffffffffffffffffffffffffffffffff166006828154811061201e577f4e487b7100000000000000000000000000000000000000000000000000000000600052603260045260246000fd5b906000526020600020906005020160020160009054906101000a900473ffffffffffffffffffffffffffffffffffffffff1673ffffffffffffffffffffffffffffffffffffffff16141561219f57600681815481106120a6577f4e487b7100000000000000000000000000000000000000000000000000000000600052603260045260246000fd5b90600052602060002090600502016040518060a001604052908160008201548152602001600182015481526020016002820160009054906101000a900473ffffffffffffffffffffffffffffffffffffffff1673ffffffffffffffffffffffffffffffffffffffff1673ffffffffffffffffffffffffffffffffffffffff168152602001600382015481526020016004820160009054906101000a900460ff161515151581525050848381518110612187577f4e487b7100000000000000000000000000000000000000000000000000000000600052603260045260246000fd5b60200260200101819052508161219c90614990565b91505b80806121aa90614990565b915050611fc0565b5060008167ffffffffffffffff8111156121f5577f4e487b7100000000000000000000000000000000000000000000000000000000600052604160045260246000fd5b60405190808252806020026020018201604052801561222e57816020015b61221b6133ef565b8152602001906001900390816122135790505b50905060005b828110156122d457848181518110612275577f4e487b7100000000000000000000000000000000000000000000000000000000600052603260045260246000fd5b60200260200101518282815181106122b6577f4e487b7100000000000000000000000000000000000000000000000000000000600052603260045260246000fd5b602002602001018190525080806122cc90614990565b915050612234565b5080945050505050919050565b6060600180546122f09061495e565b80601f016020809104026020016040519081016040528092919081815260200182805461231c9061495e565b80156123695780601f1061233e57610100808354040283529160200191612369565b820191906000526020600020905b81548152906001019060200180831161234c57829003601f168201915b5050505050905090565b60068054905082108015612388575060008210155b61239157600080fd5b3373ffffffffffffffffffffffffffffffffffffffff16600683815481106123e2577f4e487b7100000000000000000000000000000000000000000000000000000000600052603260045260246000fd5b906000526020600020906005020160020160009054906101000a900473ffffffffffffffffffffffffffffffffffffffff1673ffffffffffffffffffffffffffffffffffffffff161461243457600080fd5b600060068381548110612470577f4e487b7100000000000000000000000000000000000000000000000000000000600052603260045260246000fd5b9060005260206000209060050201905060018160040160006101000a81548160ff021916908315150217905550818160030181905550505050565b6124b36129de565b73ffffffffffffffffffffffffffffffffffffffff168273ffffffffffffffffffffffffffffffffffffffff161415612521576040517f08c379a000000000000000000000000000000000000000000000000000000000815260040161251890614494565b60405180910390fd5b806005600061252e6129de565b73ffffffffffffffffffffffffffffffffffffffff1673ffffffffffffffffffffffffffffffffffffffff16815260200190815260200160002060008473ffffffffffffffffffffffffffffffffffffffff1673ffffffffffffffffffffffffffffffffffffffff16815260200190815260200160002060006101000a81548160ff0219169083151502179055508173ffffffffffffffffffffffffffffffffffffffff166125db6129de565b73ffffffffffffffffffffffffffffffffffffffff167f17307eab39ab6107e8899845ad3d59bd9653f200f220920489ca2b5937696c31836040516126209190614373565b60405180910390a35050565b61263d6126376129de565b83612cfb565b61267c576040517f08c379a0000000000000000000000000000000000000000000000000000000008152600401612673906145d4565b60405180910390fd5b61268884848484612df7565b50505050565b606061269982612972565b6126d8576040517f08c379a00000000000000000000000000000000000000000000000000000000081526004016126cf90614594565b60405180910390fd5b60006126e2612e53565b90506000815111612702576040518060200160405280600081525061272d565b8061270c84612e6a565b60405160200161271d9291906142a4565b6040516020818303038152906040525b915050919050565b6000600560008473ffffffffffffffffffffffffffffffffffffffff1673ffffffffffffffffffffffffffffffffffffffff16815260200190815260200160002060008373ffffffffffffffffffffffffffffffffffffffff1673ffffffffffffffffffffffffffffffffffffffff16815260200190815260200160002060009054906101000a900460ff16905092915050565b60006040518060e001604052808781526020018681526020018581526020013373ffffffffffffffffffffffffffffffffffffffff1681526020018481526020018481526020018381525090506007819080600181540180825580915050600190039060005260206000209060070201600090919091909150600082015181600001908051906020019061285e929190613489565b50602082015181600101908051906020019061287b929190613489565b506040820151816002019080519060200190612898929190613489565b5060608201518160030160006101000a81548173ffffffffffffffffffffffffffffffffffffffff021916908373ffffffffffffffffffffffffffffffffffffffff1602179055506080820151816004015560a0820151816005015560c082015181600601555050505050505050565b60007f01ffc9a7000000000000000000000000000000000000000000000000000000007bffffffffffffffffffffffffffffffffffffffffffffffffffffffff1916827bffffffffffffffffffffffffffffffffffffffffffffffffffffffff1916149050919050565b60008073ffffffffffffffffffffffffffffffffffffffff166002600084815260200190815260200160002060009054906101000a900473ffffffffffffffffffffffffffffffffffffffff1673ffffffffffffffffffffffffffffffffffffffff1614159050919050565b600033905090565b816004600083815260200190815260200160002060006101000a81548173ffffffffffffffffffffffffffffffffffffffff021916908373ffffffffffffffffffffffffffffffffffffffff160217905550808273ffffffffffffffffffffffffffffffffffffffff16612a59836117b5565b73ffffffffffffffffffffffffffffffffffffffff167f8c5be1e5ebec7d5bd14f71427d1e84f3dd0314c0f7b2291e5b200ac8c7c3b92560405160405180910390a45050565b8273ffffffffffffffffffffffffffffffffffffffff16612abf826117b5565b73ffffffffffffffffffffffffffffffffffffffff1614612b15576040517f08c379a0000000000000000000000000000000000000000000000000000000008152600401612b0c90614574565b60405180910390fd5b600073ffffffffffffffffffffffffffffffffffffffff168273ffffffffffffffffffffffffffffffffffffffff161415612b85576040517f08c379a0000000000000000000000000000000000000000000000000000000008152600401612b7c90614474565b60405180910390fd5b612b90838383613017565b612b9b6000826129e6565b6001600360008573ffffffffffffffffffffffffffffffffffffffff1673ffffffffffffffffffffffffffffffffffffffff1681526020019081526020016000206000828254612beb9190614862565b925050819055506001600360008473ffffffffffffffffffffffffffffffffffffffff1673ffffffffffffffffffffffffffffffffffffffff1681526020019081526020016000206000828254612c4291906147db565b92505081905550816002600083815260200190815260200160002060006101000a81548173ffffffffffffffffffffffffffffffffffffffff021916908373ffffffffffffffffffffffffffffffffffffffff160217905550808273ffffffffffffffffffffffffffffffffffffffff168473ffffffffffffffffffffffffffffffffffffffff167fddf252ad1be2c89b69c2b068fc378daa952ba7f163c4a11628f55a4df523b3ef60405160405180910390a4505050565b6000612d0682612972565b612d45576040517f08c379a0000000000000000000000000000000000000000000000000000000008152600401612d3c906144b4565b60405180910390fd5b6000612d50836117b5565b90508073ffffffffffffffffffffffffffffffffffffffff168473ffffffffffffffffffffffffffffffffffffffff161480612dbf57508373ffffffffffffffffffffffffffffffffffffffff16612da7846107a2565b73ffffffffffffffffffffffffffffffffffffffff16145b80612dd05750612dcf8185612735565b5b91505092915050565b612df382826040518060200160405280600081525061301c565b5050565b612e02848484612a9f565b612e0e84848484613077565b612e4d576040517f08c379a0000000000000000000000000000000000000000000000000000000008152600401612e4490614434565b60405180910390fd5b50505050565b606060405180602001604052806000815250905090565b60606000821415612eb2576040518060400160405280600181526020017f30000000000000000000000000000000000000000000000000000000000000008152509050613012565b600082905060005b60008214612ee4578080612ecd90614990565b915050600a82612edd9190614831565b9150612eba565b60008167ffffffffffffffff811115612f26577f4e487b7100000000000000000000000000000000000000000000000000000000600052604160045260246000fd5b6040519080825280601f01601f191660200182016040528015612f585781602001600182028036833780820191505090505b5090505b6000851461300b57600182612f719190614862565b9150600a85612f8091906149d9565b6030612f8c91906147db565b60f81b818381518110612fc8577f4e487b7100000000000000000000000000000000000000000000000000000000600052603260045260246000fd5b60200101907effffffffffffffffffffffffffffffffffffffffffffffffffffffffffffff1916908160001a905350600a856130049190614831565b9450612f5c565b8093505050505b919050565b505050565b613026838361320e565b6130336000848484613077565b613072576040517f08c379a000000000000000000000000000000000000000000000000000000000815260040161306990614434565b60405180910390fd5b505050565b60006130988473ffffffffffffffffffffffffffffffffffffffff166133dc565b15613201578373ffffffffffffffffffffffffffffffffffffffff1663150b7a026130c16129de565b8786866040518563ffffffff1660e01b81526004016130e394939291906142e3565b602060405180830381600087803b1580156130fd57600080fd5b505af192505050801561312e57506040513d601f19601f8201168201806040525081019061312b9190613835565b60015b6131b1573d806000811461315e576040519150601f19603f3d011682016040523d82523d6000602084013e613163565b606091505b506000815114156131a9576040517f08c379a00000000000000000000000000000000000000000000000000000000081526004016131a090614434565b60405180910390fd5b805181602001fd5b63150b7a0260e01b7bffffffffffffffffffffffffffffffffffffffffffffffffffffffff1916817bffffffffffffffffffffffffffffffffffffffffffffffffffffffff191614915050613206565b600190505b949350505050565b600073ffffffffffffffffffffffffffffffffffffffff168273ffffffffffffffffffffffffffffffffffffffff16141561327e576040517f08c379a000000000000000000000000000000000000000000000000000000000815260040161327590614534565b60405180910390fd5b61328781612972565b156132c7576040517f08c379a00000000000000000000000000000000000000000000000000000000081526004016132be90614454565b60405180910390fd5b6132d360008383613017565b6001600360008473ffffffffffffffffffffffffffffffffffffffff1673ffffffffffffffffffffffffffffffffffffffff168152602001908152602001600020600082825461332391906147db565b92505081905550816002600083815260200190815260200160002060006101000a81548173ffffffffffffffffffffffffffffffffffffffff021916908373ffffffffffffffffffffffffffffffffffffffff160217905550808273ffffffffffffffffffffffffffffffffffffffff16600073ffffffffffffffffffffffffffffffffffffffff167fddf252ad1be2c89b69c2b068fc378daa952ba7f163c4a11628f55a4df523b3ef60405160405180910390a45050565b600080823b905060008111915050919050565b6040518060a001604052806000815260200160008152602001600073ffffffffffffffffffffffffffffffffffffffff168152602001600081526020016000151581525090565b6040518060e00160405280606081526020016060815260200160608152602001600073ffffffffffffffffffffffffffffffffffffffff1681526020016000815260200160008152602001600081525090565b8280546134959061495e565b90600052602060002090601f0160209004810192826134b757600085556134fe565b82601f106134d057805160ff19168380011785556134fe565b828001600101855582156134fe579182015b828111156134fd5782518255916020019190600101906134e2565b5b50905061350b919061350f565b5090565b5b80821115613528576000816000905550600101613510565b5090565b600061353f61353a846146b5565b614684565b90508281526020810184848401111561355757600080fd5b61356284828561491c565b509392505050565b600061357d613578846146e5565b614684565b90508281526020810184848401111561359557600080fd5b6135a084828561491c565b509392505050565b6000813590506135b781614ad7565b92915050565b6000813590506135cc81614aee565b92915050565b6000813590506135e181614b05565b92915050565b6000815190506135f681614b05565b92915050565b600082601f83011261360d57600080fd5b813561361d84826020860161352c565b91505092915050565b600082601f83011261363757600080fd5b813561364784826020860161356a565b91505092915050565b60008135905061365f81614b1c565b92915050565b60006020828403121561367757600080fd5b6000613685848285016135a8565b91505092915050565b600080604083850312156136a157600080fd5b60006136af858286016135a8565b92505060206136c0858286016135a8565b9150509250929050565b6000806000606084860312156136df57600080fd5b60006136ed868287016135a8565b93505060206136fe868287016135a8565b925050604061370f86828701613650565b9150509250925092565b6000806000806080858703121561372f57600080fd5b600061373d878288016135a8565b945050602061374e878288016135a8565b935050604061375f87828801613650565b925050606085013567ffffffffffffffff81111561377c57600080fd5b613788878288016135fc565b91505092959194509250565b600080604083850312156137a757600080fd5b60006137b5858286016135a8565b92505060206137c6858286016135bd565b9150509250929050565b600080604083850312156137e357600080fd5b60006137f1858286016135a8565b925050602061380285828601613650565b9150509250929050565b60006020828403121561381e57600080fd5b600061382c848285016135d2565b91505092915050565b60006020828403121561384757600080fd5b6000613855848285016135e7565b91505092915050565b600080600080600060a0868803121561387657600080fd5b600086013567ffffffffffffffff81111561389057600080fd5b61389c88828901613626565b955050602086013567ffffffffffffffff8111156138b957600080fd5b6138c588828901613626565b945050604086013567ffffffffffffffff8111156138e257600080fd5b6138ee88828901613626565b93505060606138ff88828901613650565b925050608061391088828901613650565b9150509295509295909350565b60006020828403121561392f57600080fd5b600061393d84828501613650565b91505092915050565b6000806040838503121561395957600080fd5b600061396785828601613650565b925050602061397885828601613650565b9150509250929050565b600061398e83836140ca565b905092915050565b60006139a2838361421e565b60a08301905092915050565b6139b7816148a8565b82525050565b6139c6816148a8565b82525050565b6139d581614896565b82525050565b60006139e682614735565b6139f0818561477b565b935083602082028501613a0285614715565b8060005b85811015613a3e5784840389528151613a1f8582613982565b9450613a2a83614761565b925060208a01995050600181019050613a06565b50829750879550505050505092915050565b6000613a5b82614740565b613a65818561478c565b9350613a7083614725565b8060005b83811015613aa1578151613a888882613996565b9750613a938361476e565b925050600181019050613a74565b5085935050505092915050565b613ab7816148ba565b82525050565b613ac6816148ba565b82525050565b6000613ad78261474b565b613ae1818561479d565b9350613af181856020860161492b565b613afa81614ac6565b840191505092915050565b6000613b1082614756565b613b1a81856147ae565b9350613b2a81856020860161492b565b613b3381614ac6565b840191505092915050565b6000613b4982614756565b613b5381856147bf565b9350613b6381856020860161492b565b613b6c81614ac6565b840191505092915050565b6000613b8282614756565b613b8c81856147d0565b9350613b9c81856020860161492b565b80840191505092915050565b6000613bb56032836147bf565b91507f4552433732313a207472616e7366657220746f206e6f6e20455243373231526560008301527f63656976657220696d706c656d656e74657200000000000000000000000000006020830152604082019050919050565b6000613c1b601c836147bf565b91507f4552433732313a20746f6b656e20616c7265616479206d696e746564000000006000830152602082019050919050565b6000613c5b6024836147bf565b91507f4552433732313a207472616e7366657220746f20746865207a65726f2061646460008301527f72657373000000000000000000000000000000000000000000000000000000006020830152604082019050919050565b6000613cc16019836147bf565b91507f4552433732313a20617070726f766520746f2063616c6c6572000000000000006000830152602082019050919050565b6000613d01602c836147bf565b91507f4552433732313a206f70657261746f7220717565727920666f72206e6f6e657860008301527f697374656e7420746f6b656e00000000000000000000000000000000000000006020830152604082019050919050565b6000613d676038836147bf565b91507f4552433732313a20617070726f76652063616c6c6572206973206e6f74206f7760008301527f6e6572206e6f7220617070726f76656420666f7220616c6c00000000000000006020830152604082019050919050565b6000613dcd602a836147bf565b91507f4552433732313a2062616c616e636520717565727920666f7220746865207a6560008301527f726f2061646472657373000000000000000000000000000000000000000000006020830152604082019050919050565b6000613e336029836147bf565b91507f4552433732313a206f776e657220717565727920666f72206e6f6e657869737460008301527f656e7420746f6b656e00000000000000000000000000000000000000000000006020830152604082019050919050565b6000613e996020836147bf565b91507f4552433732313a206d696e7420746f20746865207a65726f20616464726573736000830152602082019050919050565b6000613ed9602c836147bf565b91507f4552433732313a20617070726f76656420717565727920666f72206e6f6e657860008301527f697374656e7420746f6b656e00000000000000000000000000000000000000006020830152604082019050919050565b6000613f3f6029836147bf565b91507f4552433732313a207472616e73666572206f6620746f6b656e2074686174206960008301527f73206e6f74206f776e00000000000000000000000000000000000000000000006020830152604082019050919050565b6000613fa5602f836147bf565b91507f4552433732314d657461646174613a2055524920717565727920666f72206e6f60008301527f6e6578697374656e7420746f6b656e00000000000000000000000000000000006020830152604082019050919050565b600061400b6021836147bf565b91507f4552433732313a20617070726f76616c20746f2063757272656e74206f776e6560008301527f72000000000000000000000000000000000000000000000000000000000000006020830152604082019050919050565b60006140716031836147bf565b91507f4552433732313a207472616e736665722063616c6c6572206973206e6f74206f60008301527f776e6572206e6f7220617070726f7665640000000000000000000000000000006020830152604082019050919050565b600060e08301600083015184820360008601526140e78282613b05565b915050602083015184820360208601526141018282613b05565b9150506040830151848203604086015261411b8282613b05565b915050606083015161413060608601826139ae565b5060808301516141436080860182614286565b5060a083015161415660a0860182614286565b5060c083015161416960c0860182614286565b508091505092915050565b600060e08301600083015184820360008601526141918282613b05565b915050602083015184820360208601526141ab8282613b05565b915050604083015184820360408601526141c58282613b05565b91505060608301516141da60608601826139ae565b5060808301516141ed6080860182614286565b5060a083015161420060a0860182614286565b5060c083015161421360c0860182614286565b508091505092915050565b60a0820160008201516142346000850182614286565b5060208201516142476020850182614286565b50604082015161425a60408501826139ae565b50606082015161426d6060850182614286565b5060808201516142806080850182613aae565b50505050565b61428f81614912565b82525050565b61429e81614912565b82525050565b60006142b08285613b77565b91506142bc8284613b77565b91508190509392505050565b60006020820190506142dd60008301846139cc565b92915050565b60006080820190506142f860008301876139cc565b61430560208301866139cc565b6143126040830185614295565b81810360608301526143248184613acc565b905095945050505050565b6000602082019050818103600083015261434981846139db565b905092915050565b6000602082019050818103600083015261436b8184613a50565b905092915050565b60006020820190506143886000830184613abd565b92915050565b600060208201905081810360008301526143a88184613b3e565b905092915050565b600060e08201905081810360008301526143ca818a613b3e565b905081810360208301526143de8189613b3e565b905081810360408301526143f28188613b3e565b905061440160608301876139bd565b61440e6080830186614295565b61441b60a0830185614295565b61442860c0830184614295565b98975050505050505050565b6000602082019050818103600083015261444d81613ba8565b9050919050565b6000602082019050818103600083015261446d81613c0e565b9050919050565b6000602082019050818103600083015261448d81613c4e565b9050919050565b600060208201905081810360008301526144ad81613cb4565b9050919050565b600060208201905081810360008301526144cd81613cf4565b9050919050565b600060208201905081810360008301526144ed81613d5a565b9050919050565b6000602082019050818103600083015261450d81613dc0565b9050919050565b6000602082019050818103600083015261452d81613e26565b9050919050565b6000602082019050818103600083015261454d81613e8c565b9050919050565b6000602082019050818103600083015261456d81613ecc565b9050919050565b6000602082019050818103600083015261458d81613f32565b9050919050565b600060208201905081810360008301526145ad81613f98565b9050919050565b600060208201905081810360008301526145cd81613ffe565b9050919050565b600060208201905081810360008301526145ed81614064565b9050919050565b6000602082019050818103600083015261460e8184614174565b905092915050565b600060208201905061462b6000830184614295565b92915050565b600060a0820190506146466000830188614295565b6146536020830187614295565b61466060408301866139bd565b61466d6060830185614295565b61467a6080830184613abd565b9695505050505050565b6000604051905081810181811067ffffffffffffffff821117156146ab576146aa614a97565b5b8060405250919050565b600067ffffffffffffffff8211156146d0576146cf614a97565b5b601f19601f8301169050602081019050919050565b600067ffffffffffffffff821115614700576146ff614a97565b5b601f19601f8301169050602081019050919050565b6000819050602082019050919050565b6000819050602082019050919050565b600081519050919050565b600081519050919050565b600081519050919050565b600081519050919050565b6000602082019050919050565b6000602082019050919050565b600082825260208201905092915050565b600082825260208201905092915050565b600082825260208201905092915050565b600082825260208201905092915050565b600082825260208201905092915050565b600081905092915050565b60006147e682614912565b91506147f183614912565b9250827fffffffffffffffffffffffffffffffffffffffffffffffffffffffffffffffff0382111561482657614825614a0a565b5b828201905092915050565b600061483c82614912565b915061484783614912565b92508261485757614856614a39565b5b828204905092915050565b600061486d82614912565b915061487883614912565b92508282101561488b5761488a614a0a565b5b828203905092915050565b60006148a1826148f2565b9050919050565b60006148b3826148f2565b9050919050565b60008115159050919050565b60007fffffffff0000000000000000000000000000000000000000000000000000000082169050919050565b600073ffffffffffffffffffffffffffffffffffffffff82169050919050565b6000819050919050565b82818337600083830152505050565b60005b8381101561494957808201518184015260208101905061492e565b83811115614958576000848401525b50505050565b6000600282049050600182168061497657607f821691505b6020821081141561498a57614989614a68565b5b50919050565b600061499b82614912565b91507fffffffffffffffffffffffffffffffffffffffffffffffffffffffffffffffff8214156149ce576149cd614a0a565b5b600182019050919050565b60006149e482614912565b91506149ef83614912565b9250826149ff576149fe614a39565b5b828206905092915050565b7f4e487b7100000000000000000000000000000000000000000000000000000000600052601160045260246000fd5b7f4e487b7100000000000000000000000000000000000000000000000000000000600052601260045260246000fd5b7f4e487b7100000000000000000000000000000000000000000000000000000000600052602260045260246000fd5b7f4e487b7100000000000000000000000000000000000000000000000000000000600052604160045260246000fd5b6000601f19601f8301169050919050565b614ae081614896565b8114614aeb57600080fd5b50565b614af7816148ba565b8114614b0257600080fd5b50565b614b0e816148c6565b8114614b1957600080fd5b50565b614b2581614912565b8114614b3057600080fd5b5056fea26469706673582212202b83ec228a7e24bc64eafa760e707f121a9dc0aec494a8361f186ef481ede07664736f6c63430008000033",
  "immutableReferences": {},
  "source": "// SPDX-License-Identifier: MIT\r\npragma solidity 0.8.0;\r\n\r\nimport \"@openzeppelin/contracts/token/ERC721/ERC721.sol\";\r\n\r\ncontract EventMain is ERC721{\r\n    constructor() ERC721(\"Event\", \"EVT\"){\r\n    }\r\n\r\n    Ticket[] public tickets;\r\n    Event[] public events;\r\n    \r\n    struct Ticket{\r\n        uint evtId;\r\n        uint number;\r\n        address payable owner;\r\n        uint256 price;\r\n        bool forSale;\r\n    }\r\n\r\n    struct Event{\r\n        string title;\r\n        string description;\r\n        string date;\r\n        address payable creator;\r\n        uint amount;\r\n        uint remainingAmount;\r\n        uint256 price;\r\n    }\r\n\r\n\r\n    function createEvent(string memory _title, string memory _description,string memory _date, uint _amount, uint256 _price) public {\r\n        Event memory evt = Event(_title, _description, _date, payable(msg.sender), _amount, _amount, _price);\r\n        events.push(evt);   \r\n    }\r\n\r\n    //returns all Events, NOT Tickets\r\n    function getEvents() public view returns (Event[] memory _event){\r\n        Event[] memory allEvents = events;\r\n        return allEvents;\r\n    }\r\n\r\n    //returns all Events, NOT Tickets\r\n    function getEvent(uint _evtId) public view returns (Event memory){\r\n        Event memory evt = events[_evtId];\r\n        return evt;\r\n    }\r\n\r\n    //returns all minted Tickets\r\n    function getTickets() public view returns (Ticket[] memory ticket){\r\n        Ticket[] memory allTickets = tickets;\r\n        return allTickets;\r\n    }\r\n\r\n    //returns all minted Tickets for sale\r\n    function getTicketsForSale() public view returns (Ticket[] memory ticket){\r\n        //memory doesn't allow dynamic arrays, so this is the best we can do :(\r\n        Ticket[] memory ticketsForSale = new Ticket[](tickets.length);\r\n        uint count = 0;\r\n        for (uint i=0; i<tickets.length; i++) {\r\n            if(tickets[i].forSale == true){\r\n                ticketsForSale[i] = tickets[i];    \r\n                ++count;\r\n            }\r\n        }\r\n\r\n        //solidity does not allow dynamic arrays in memory. Because of this we need to remove the empty indexes\r\n        Ticket[] memory trimmedTickets = new Ticket[](count);\r\n        for (uint i=0; i<count; i++) {\r\n            trimmedTickets[i] = ticketsForSale[i];\r\n        }\r\n\r\n        return trimmedTickets;\r\n    }\r\n    \r\n    event CoolEvent(address payable addr1, address payable addr2);\r\n\r\n    //returns all Tickets the sender owns\r\n    function getMyTickets(address addr) public view returns (Ticket[] memory ticket){\r\n        Ticket[] memory ticketsFrom = new Ticket[](tickets.length);\r\n        address payable sender = payable(addr);\r\n        uint count = 0;\r\n        for (uint i=0; i<tickets.length; i++) {\r\n            if(tickets[i].owner == sender){\r\n                ticketsFrom[count] = tickets[i];    \r\n                ++count;\r\n            }\r\n        }\r\n        \r\n        //solidity does not allow dynamic arrays in memory. Because of this we need to remove the empty indexes\r\n        Ticket[] memory trimmedTickets = new Ticket[](count);\r\n        for (uint i=0; i<count; i++) {\r\n            trimmedTickets[i] = ticketsFrom[i];\r\n        }\r\n\r\n        return trimmedTickets;\r\n    }\r\n\r\n    //purchase a Ticket that matches with Event-ID\r\n    function buyTicket(uint _evtId) public payable{\r\n        require(_evtId < events.length && _evtId >= 0);\r\n        \r\n        Event storage evt = events[_evtId];\r\n        require(msg.value >= evt.price);\r\n        require(evt.remainingAmount > 0);\r\n\r\n        uint ticketNumber = evt.amount - evt.remainingAmount + 1;\r\n\r\n        tickets.push(Ticket(_evtId, ticketNumber, payable(msg.sender), evt.price, false));\r\n        evt.remainingAmount -= 1;\r\n\r\n        uint ticketId = tickets.length-1;\r\n        //mint Ticket to buyers address\r\n        _safeMint(msg.sender, ticketId);\r\n        //send the creator the transmitted money\r\n        evt.creator.transfer(msg.value);\r\n    }\r\n    \r\n    function buyTicketFromMarket(uint ticketId) public payable{\r\n        require(ticketId < tickets.length && ticketId >= 0);\r\n\r\n        Ticket storage ticket = tickets[ticketId];\r\n\r\n        require(ticket.forSale==true);\r\n        require(msg.value >= ticket.price);\r\n\r\n        Event memory evt = events[ticket.evtId];\r\n        uint creatorFee = uint(msg.value / 10);\r\n        evt.creator.transfer(creatorFee);\r\n        ticket.owner.transfer(msg.value-creatorFee);\r\n        _transfer(ticket.owner, msg.sender, ticketId);\r\n        ticket.owner=payable(msg.sender);\r\n        ticket.forSale = false;\r\n    }\r\n\r\n\r\n    //put ticket up for sale\r\n    function startSellingTicket(uint _ticketId, uint _price) public{\r\n        require(_ticketId < tickets.length && _ticketId >= 0);\r\n        require(tickets[_ticketId].owner == msg.sender);\r\n        Ticket storage ticket = tickets[_ticketId];\r\n        ticket.forSale = true;\r\n        ticket.price = _price;\r\n    }\r\n\r\n    //put ticket down from sale\r\n    function stopSellingTicket(uint _ticketId) public{\r\n        require(_ticketId < tickets.length && _ticketId >= 0);\r\n        require(tickets[_ticketId].owner == msg.sender);\r\n        Ticket storage ticket = tickets[_ticketId];\r\n        ticket.forSale = false;\r\n    }\r\n\r\n}\r\n",
  "sourcePath": "C:/Users/Simon/projects/event/app/contracts/EventMain.sol",
  "compiler": {
    "name": "solc",
    "version": "0.8.0+commit.c7dfd78e.Emscripten.clang"
  },
  "schemaVersion": "3.3.4",
  "updatedAt": "2021-05-07T10:56:51.682Z",
  "networkType": "ethereum",
  "devdoc": {
    "kind": "dev",
    "methods": {
      "approve(address,uint256)": {
        "details": "See {IERC721-approve}."
      },
      "balanceOf(address)": {
        "details": "See {IERC721-balanceOf}."
      },
      "getApproved(uint256)": {
        "details": "See {IERC721-getApproved}."
      },
      "isApprovedForAll(address,address)": {
        "details": "See {IERC721-isApprovedForAll}."
      },
      "name()": {
        "details": "See {IERC721Metadata-name}."
      },
      "ownerOf(uint256)": {
        "details": "See {IERC721-ownerOf}."
      },
      "safeTransferFrom(address,address,uint256)": {
        "details": "See {IERC721-safeTransferFrom}."
      },
      "safeTransferFrom(address,address,uint256,bytes)": {
        "details": "See {IERC721-safeTransferFrom}."
      },
      "setApprovalForAll(address,bool)": {
        "details": "See {IERC721-setApprovalForAll}."
      },
      "supportsInterface(bytes4)": {
        "details": "See {IERC165-supportsInterface}."
      },
      "symbol()": {
        "details": "See {IERC721Metadata-symbol}."
      },
      "tokenURI(uint256)": {
        "details": "See {IERC721Metadata-tokenURI}."
      },
      "transferFrom(address,address,uint256)": {
        "details": "See {IERC721-transferFrom}."
      }
    },
    "version": 1
  },
  "userdoc": {
    "kind": "user",
    "methods": {},
    "version": 1
  }
}