{
  "contractName": "EventMainSheeeeeeeeeeeeeesh",
  "abi": [
    {
      "inputs": [],
      "stateMutability": "nonpayable",
      "type": "constructor"
    },
    {
      "anonymous": false,
      "inputs": [
        {
          "indexed": true,
          "internalType": "address",
          "name": "owner",
          "type": "address"
        },
        {
          "indexed": true,
          "internalType": "address",
          "name": "approved",
          "type": "address"
        },
        {
          "indexed": true,
          "internalType": "uint256",
          "name": "tokenId",
          "type": "uint256"
        }
      ],
      "name": "Approval",
      "type": "event"
    },
    {
      "anonymous": false,
      "inputs": [
        {
          "indexed": true,
          "internalType": "address",
          "name": "owner",
          "type": "address"
        },
        {
          "indexed": true,
          "internalType": "address",
          "name": "operator",
          "type": "address"
        },
        {
          "indexed": false,
          "internalType": "bool",
          "name": "approved",
          "type": "bool"
        }
      ],
      "name": "ApprovalForAll",
      "type": "event"
    },
    {
      "anonymous": false,
      "inputs": [
        {
          "indexed": true,
          "internalType": "address",
          "name": "from",
          "type": "address"
        },
        {
          "indexed": true,
          "internalType": "address",
          "name": "to",
          "type": "address"
        },
        {
          "indexed": true,
          "internalType": "uint256",
          "name": "tokenId",
          "type": "uint256"
        }
      ],
      "name": "Transfer",
      "type": "event"
    },
    {
      "inputs": [
        {
          "internalType": "address",
          "name": "to",
          "type": "address"
        },
        {
          "internalType": "uint256",
          "name": "tokenId",
          "type": "uint256"
        }
      ],
      "name": "approve",
      "outputs": [],
      "stateMutability": "nonpayable",
      "type": "function"
    },
    {
      "inputs": [
        {
          "internalType": "address",
          "name": "owner",
          "type": "address"
        }
      ],
      "name": "balanceOf",
      "outputs": [
        {
          "internalType": "uint256",
          "name": "",
          "type": "uint256"
        }
      ],
      "stateMutability": "view",
      "type": "function"
    },
    {
      "inputs": [
        {
          "internalType": "uint256",
          "name": "",
          "type": "uint256"
        }
      ],
      "name": "events",
      "outputs": [
        {
          "internalType": "string",
          "name": "title",
          "type": "string"
        },
        {
          "internalType": "string",
          "name": "description",
          "type": "string"
        },
        {
          "internalType": "address payable",
          "name": "creator",
          "type": "address"
        },
        {
          "internalType": "uint256",
          "name": "amount",
          "type": "uint256"
        },
        {
          "internalType": "uint256",
          "name": "remainingAmount",
          "type": "uint256"
        },
        {
          "internalType": "uint256",
          "name": "price",
          "type": "uint256"
        }
      ],
      "stateMutability": "view",
      "type": "function"
    },
    {
      "inputs": [
        {
          "internalType": "uint256",
          "name": "tokenId",
          "type": "uint256"
        }
      ],
      "name": "getApproved",
      "outputs": [
        {
          "internalType": "address",
          "name": "",
          "type": "address"
        }
      ],
      "stateMutability": "view",
      "type": "function"
    },
    {
      "inputs": [
        {
          "internalType": "address",
          "name": "owner",
          "type": "address"
        },
        {
          "internalType": "address",
          "name": "operator",
          "type": "address"
        }
      ],
      "name": "isApprovedForAll",
      "outputs": [
        {
          "internalType": "bool",
          "name": "",
          "type": "bool"
        }
      ],
      "stateMutability": "view",
      "type": "function"
    },
    {
      "inputs": [],
      "name": "name",
      "outputs": [
        {
          "internalType": "string",
          "name": "",
          "type": "string"
        }
      ],
      "stateMutability": "view",
      "type": "function"
    },
    {
      "inputs": [
        {
          "internalType": "uint256",
          "name": "tokenId",
          "type": "uint256"
        }
      ],
      "name": "ownerOf",
      "outputs": [
        {
          "internalType": "address",
          "name": "",
          "type": "address"
        }
      ],
      "stateMutability": "view",
      "type": "function"
    },
    {
      "inputs": [
        {
          "internalType": "address",
          "name": "from",
          "type": "address"
        },
        {
          "internalType": "address",
          "name": "to",
          "type": "address"
        },
        {
          "internalType": "uint256",
          "name": "tokenId",
          "type": "uint256"
        }
      ],
      "name": "safeTransferFrom",
      "outputs": [],
      "stateMutability": "nonpayable",
      "type": "function"
    },
    {
      "inputs": [
        {
          "internalType": "address",
          "name": "from",
          "type": "address"
        },
        {
          "internalType": "address",
          "name": "to",
          "type": "address"
        },
        {
          "internalType": "uint256",
          "name": "tokenId",
          "type": "uint256"
        },
        {
          "internalType": "bytes",
          "name": "_data",
          "type": "bytes"
        }
      ],
      "name": "safeTransferFrom",
      "outputs": [],
      "stateMutability": "nonpayable",
      "type": "function"
    },
    {
      "inputs": [
        {
          "internalType": "address",
          "name": "operator",
          "type": "address"
        },
        {
          "internalType": "bool",
          "name": "approved",
          "type": "bool"
        }
      ],
      "name": "setApprovalForAll",
      "outputs": [],
      "stateMutability": "nonpayable",
      "type": "function"
    },
    {
      "inputs": [
        {
          "internalType": "bytes4",
          "name": "interfaceId",
          "type": "bytes4"
        }
      ],
      "name": "supportsInterface",
      "outputs": [
        {
          "internalType": "bool",
          "name": "",
          "type": "bool"
        }
      ],
      "stateMutability": "view",
      "type": "function"
    },
    {
      "inputs": [],
      "name": "symbol",
      "outputs": [
        {
          "internalType": "string",
          "name": "",
          "type": "string"
        }
      ],
      "stateMutability": "view",
      "type": "function"
    },
    {
      "inputs": [
        {
          "internalType": "uint256",
          "name": "",
          "type": "uint256"
        }
      ],
      "name": "tickets",
      "outputs": [
        {
          "internalType": "uint256",
          "name": "evtId",
          "type": "uint256"
        },
        {
          "internalType": "uint256",
          "name": "number",
          "type": "uint256"
        },
        {
          "internalType": "address payable",
          "name": "owner",
          "type": "address"
        },
        {
          "internalType": "uint256",
          "name": "price",
          "type": "uint256"
        },
        {
          "internalType": "bool",
          "name": "forSale",
          "type": "bool"
        }
      ],
      "stateMutability": "view",
      "type": "function"
    },
    {
      "inputs": [
        {
          "internalType": "uint256",
          "name": "tokenId",
          "type": "uint256"
        }
      ],
      "name": "tokenURI",
      "outputs": [
        {
          "internalType": "string",
          "name": "",
          "type": "string"
        }
      ],
      "stateMutability": "view",
      "type": "function"
    },
    {
      "inputs": [
        {
          "internalType": "address",
          "name": "from",
          "type": "address"
        },
        {
          "internalType": "address",
          "name": "to",
          "type": "address"
        },
        {
          "internalType": "uint256",
          "name": "tokenId",
          "type": "uint256"
        }
      ],
      "name": "transferFrom",
      "outputs": [],
      "stateMutability": "nonpayable",
      "type": "function"
    },
    {
      "inputs": [
        {
          "internalType": "string",
          "name": "_title",
          "type": "string"
        },
        {
          "internalType": "string",
          "name": "_description",
          "type": "string"
        },
        {
          "internalType": "uint256",
          "name": "_amount",
          "type": "uint256"
        },
        {
          "internalType": "uint256",
          "name": "_price",
          "type": "uint256"
        }
      ],
      "name": "createEvent",
      "outputs": [],
      "stateMutability": "nonpayable",
      "type": "function"
    },
    {
      "inputs": [],
      "name": "getEvents",
      "outputs": [
        {
          "components": [
            {
              "internalType": "string",
              "name": "title",
              "type": "string"
            },
            {
              "internalType": "string",
              "name": "description",
              "type": "string"
            },
            {
              "internalType": "address payable",
              "name": "creator",
              "type": "address"
            },
            {
              "internalType": "uint256",
              "name": "amount",
              "type": "uint256"
            },
            {
              "internalType": "uint256",
              "name": "remainingAmount",
              "type": "uint256"
            },
            {
              "internalType": "uint256",
              "name": "price",
              "type": "uint256"
            }
          ],
          "internalType": "struct EventMainSheeeeeeeeeeeeeesh.Event[]",
          "name": "_event",
          "type": "tuple[]"
        }
      ],
      "stateMutability": "view",
      "type": "function"
    },
    {
      "inputs": [
        {
          "internalType": "uint256",
          "name": "_evtId",
          "type": "uint256"
        }
      ],
      "name": "getEvent",
      "outputs": [
        {
          "components": [
            {
              "internalType": "string",
              "name": "title",
              "type": "string"
            },
            {
              "internalType": "string",
              "name": "description",
              "type": "string"
            },
            {
              "internalType": "address payable",
              "name": "creator",
              "type": "address"
            },
            {
              "internalType": "uint256",
              "name": "amount",
              "type": "uint256"
            },
            {
              "internalType": "uint256",
              "name": "remainingAmount",
              "type": "uint256"
            },
            {
              "internalType": "uint256",
              "name": "price",
              "type": "uint256"
            }
          ],
          "internalType": "struct EventMainSheeeeeeeeeeeeeesh.Event",
          "name": "",
          "type": "tuple"
        }
      ],
      "stateMutability": "view",
      "type": "function"
    },
    {
      "inputs": [],
      "name": "getTickets",
      "outputs": [
        {
          "components": [
            {
              "internalType": "uint256",
              "name": "evtId",
              "type": "uint256"
            },
            {
              "internalType": "uint256",
              "name": "number",
              "type": "uint256"
            },
            {
              "internalType": "address payable",
              "name": "owner",
              "type": "address"
            },
            {
              "internalType": "uint256",
              "name": "price",
              "type": "uint256"
            },
            {
              "internalType": "bool",
              "name": "forSale",
              "type": "bool"
            }
          ],
          "internalType": "struct EventMainSheeeeeeeeeeeeeesh.Ticket[]",
          "name": "ticket",
          "type": "tuple[]"
        }
      ],
      "stateMutability": "view",
      "type": "function"
    },
    {
      "inputs": [],
      "name": "getTicketsForSale",
      "outputs": [
        {
          "components": [
            {
              "internalType": "uint256",
              "name": "evtId",
              "type": "uint256"
            },
            {
              "internalType": "uint256",
              "name": "number",
              "type": "uint256"
            },
            {
              "internalType": "address payable",
              "name": "owner",
              "type": "address"
            },
            {
              "internalType": "uint256",
              "name": "price",
              "type": "uint256"
            },
            {
              "internalType": "bool",
              "name": "forSale",
              "type": "bool"
            }
          ],
          "internalType": "struct EventMainSheeeeeeeeeeeeeesh.Ticket[]",
          "name": "ticket",
          "type": "tuple[]"
        }
      ],
      "stateMutability": "view",
      "type": "function"
    },
    {
      "inputs": [],
      "name": "getMyTickets",
      "outputs": [
        {
          "components": [
            {
              "internalType": "uint256",
              "name": "evtId",
              "type": "uint256"
            },
            {
              "internalType": "uint256",
              "name": "number",
              "type": "uint256"
            },
            {
              "internalType": "address payable",
              "name": "owner",
              "type": "address"
            },
            {
              "internalType": "uint256",
              "name": "price",
              "type": "uint256"
            },
            {
              "internalType": "bool",
              "name": "forSale",
              "type": "bool"
            }
          ],
          "internalType": "struct EventMainSheeeeeeeeeeeeeesh.Ticket[]",
          "name": "ticket",
          "type": "tuple[]"
        }
      ],
      "stateMutability": "view",
      "type": "function"
    },
    {
      "inputs": [
        {
          "internalType": "uint256",
          "name": "evtId",
          "type": "uint256"
        }
      ],
      "name": "buyTicket",
      "outputs": [],
      "stateMutability": "payable",
      "type": "function"
    },
    {
      "inputs": [
        {
          "internalType": "uint256",
          "name": "ticketId",
          "type": "uint256"
        }
      ],
      "name": "buyTicketFromMarket",
      "outputs": [],
      "stateMutability": "payable",
      "type": "function"
    },
    {
      "inputs": [
        {
          "internalType": "uint256",
          "name": "_ticketId",
          "type": "uint256"
        },
        {
          "internalType": "uint256",
          "name": "_price",
          "type": "uint256"
        }
      ],
      "name": "startSellingTicket",
      "outputs": [],
      "stateMutability": "nonpayable",
      "type": "function"
    },
    {
      "inputs": [
        {
          "internalType": "uint256",
          "name": "_ticketId",
          "type": "uint256"
        }
      ],
      "name": "stopSellingTicket",
      "outputs": [],
      "stateMutability": "nonpayable",
      "type": "function"
    }
  ],
  "bytecode": "0x60806040523480156200001157600080fd5b506040518060400160405280600581526020017f4576656e740000000000000000000000000000000000000000000000000000008152506040518060400160405280600381526020017f4556540000000000000000000000000000000000000000000000000000000000815250816000908051906020019062000096929190620000b8565b508060019080519060200190620000af929190620000b8565b505050620001cd565b828054620000c69062000168565b90600052602060002090601f016020900481019282620000ea576000855562000136565b82601f106200010557805160ff191683800117855562000136565b8280016001018555821562000136579182015b828111156200013557825182559160200191906001019062000118565b5b50905062000145919062000149565b5090565b5b80821115620001645760008160009055506001016200014a565b5090565b600060028204905060018216806200018157607f821691505b602082108114156200019857620001976200019e565b5b50919050565b7f4e487b7100000000000000000000000000000000000000000000000000000000600052602260045260246000fd5b61486880620001dd6000396000f3fe6080604052600436106101665760003560e01c80636352211e116100d157806396dab5571161008a578063bce062b911610064578063bce062b91461054d578063c87b56dd14610576578063e1d10d85146105b3578063e985e9c5146105de57610166565b806396dab557146104d2578063a22cb465146104fb578063b88d4fde1461052457610166565b80636352211e146103ab57806367dd74ca146103e85780636d1884e01461040457806370a08231146104415780637522a89f1461047e57806395d89b41146104a757610166565b806323b872dd1161012357806323b872dd1461029757806335fe12d8146102c0578063404aa8f9146102eb57806342842e0e146103165780634ed026221461033f57806350b447121461036a57610166565b806301ffc9a71461016b57806306fdde03146101a8578063081812fc146101d3578063095ea7b3146102105780630b791430146102395780632026def71461027b575b600080fd5b34801561017757600080fd5b50610192600480360381019061018d9190613580565b61061b565b60405161019f9190614087565b60405180910390f35b3480156101b457600080fd5b506101bd6106fd565b6040516101ca91906140a2565b60405180910390f35b3480156101df57600080fd5b506101fa60048036038101906101f59190613665565b61078f565b6040516102079190613fdc565b60405180910390f35b34801561021c57600080fd5b5061023760048036038101906102329190613544565b610814565b005b34801561024557600080fd5b50610260600480360381019061025b9190613665565b61092c565b604051610272969594939291906140c4565b60405180910390f35b61029560048036038101906102909190613665565b610aa8565b005b3480156102a357600080fd5b506102be60048036038101906102b9919061343e565b610e9c565b005b3480156102cc57600080fd5b506102d5610efc565b6040516102e29190614065565b60405180910390f35b3480156102f757600080fd5b50610300611269565b60405161030d9190614043565b60405180910390f35b34801561032257600080fd5b5061033d6004803603810190610338919061343e565b611466565b005b34801561034b57600080fd5b50610354611486565b6040516103619190614065565b60405180910390f35b34801561037657600080fd5b50610391600480360381019061038c9190613665565b61157a565b6040516103a2959493929190614330565b60405180910390f35b3480156103b757600080fd5b506103d260048036038101906103cd9190613665565b6115ed565b6040516103df9190613fdc565b60405180910390f35b61040260048036038101906103fd9190613665565b61169f565b005b34801561041057600080fd5b5061042b60048036038101906104269190613665565b6118e3565b60405161043891906142f3565b60405180910390f35b34801561044d57600080fd5b50610468600480360381019061046391906133d9565b611ae3565b6040516104759190614315565b60405180910390f35b34801561048a57600080fd5b506104a560048036038101906104a09190613665565b611b9b565b005b3480156104b357600080fd5b506104bc611cd3565b6040516104c991906140a2565b60405180910390f35b3480156104de57600080fd5b506104f960048036038101906104f4919061368e565b611d65565b005b34801561050757600080fd5b50610522600480360381019061051d9190613508565b611e9d565b005b34801561053057600080fd5b5061054b6004803603810190610546919061348d565b61201e565b005b34801561055957600080fd5b50610574600480360381019061056f91906135d2565b612080565b005b34801561058257600080fd5b5061059d60048036038101906105989190613665565b61219b565b6040516105aa91906140a2565b60405180910390f35b3480156105bf57600080fd5b506105c8612242565b6040516105d59190614065565b60405180910390f35b3480156105ea57600080fd5b5061060560048036038101906106009190613402565b6125ef565b6040516106129190614087565b60405180910390f35b60007f80ac58cd000000000000000000000000000000000000000000000000000000007bffffffffffffffffffffffffffffffffffffffffffffffffffffffff1916827bffffffffffffffffffffffffffffffffffffffffffffffffffffffff191614806106e657507f5b5e139f000000000000000000000000000000000000000000000000000000007bffffffffffffffffffffffffffffffffffffffffffffffffffffffff1916827bffffffffffffffffffffffffffffffffffffffffffffffffffffffff1916145b806106f657506106f582612683565b5b9050919050565b60606000805461070c9061465d565b80601f01602080910402602001604051908101604052809291908181526020018280546107389061465d565b80156107855780601f1061075a57610100808354040283529160200191610785565b820191906000526020600020905b81548152906001019060200180831161076857829003601f168201915b5050505050905090565b600061079a826126ed565b6107d9576040517f08c379a00000000000000000000000000000000000000000000000000000000081526004016107d090614253565b60405180910390fd5b6004600083815260200190815260200160002060009054906101000a900473ffffffffffffffffffffffffffffffffffffffff169050919050565b600061081f826115ed565b90508073ffffffffffffffffffffffffffffffffffffffff168373ffffffffffffffffffffffffffffffffffffffff161415610890576040517f08c379a0000000000000000000000000000000000000000000000000000000008152600401610887906142b3565b60405180910390fd5b8073ffffffffffffffffffffffffffffffffffffffff166108af612759565b73ffffffffffffffffffffffffffffffffffffffff1614806108de57506108dd816108d8612759565b6125ef565b5b61091d576040517f08c379a0000000000000000000000000000000000000000000000000000000008152600401610914906141d3565b60405180910390fd5b6109278383612761565b505050565b6007818154811061093c57600080fd5b906000526020600020906006020160009150905080600001805461095f9061465d565b80601f016020809104026020016040519081016040528092919081815260200182805461098b9061465d565b80156109d85780601f106109ad576101008083540402835291602001916109d8565b820191906000526020600020905b8154815290600101906020018083116109bb57829003601f168201915b5050505050908060010180546109ed9061465d565b80601f0160208091040260200160405190810160405280929190818152602001828054610a199061465d565b8015610a665780601f10610a3b57610100808354040283529160200191610a66565b820191906000526020600020905b815481529060010190602001808311610a4957829003601f168201915b5050505050908060020160009054906101000a900473ffffffffffffffffffffffffffffffffffffffff16908060030154908060040154908060050154905086565b60068054905081108015610abd575060008110155b610ac657600080fd5b600060068281548110610b02577f4e487b7100000000000000000000000000000000000000000000000000000000600052603260045260246000fd5b906000526020600020906005020190508060030154341015610b2357600080fd5b6000600760068481548110610b61577f4e487b7100000000000000000000000000000000000000000000000000000000600052603260045260246000fd5b90600052602060002090600502016000015481548110610baa577f4e487b7100000000000000000000000000000000000000000000000000000000600052603260045260246000fd5b90600052602060002090600602016040518060c0016040529081600082018054610bd39061465d565b80601f0160208091040260200160405190810160405280929190818152602001828054610bff9061465d565b8015610c4c5780601f10610c2157610100808354040283529160200191610c4c565b820191906000526020600020905b815481529060010190602001808311610c2f57829003601f168201915b50505050508152602001600182018054610c659061465d565b80601f0160208091040260200160405190810160405280929190818152602001828054610c919061465d565b8015610cde5780601f10610cb357610100808354040283529160200191610cde565b820191906000526020600020905b815481529060010190602001808311610cc157829003601f168201915b505050505081526020016002820160009054906101000a900473ffffffffffffffffffffffffffffffffffffffff1673ffffffffffffffffffffffffffffffffffffffff1673ffffffffffffffffffffffffffffffffffffffff168152602001600382015481526020016004820154815260200160058201548152505090506000600a34610d6c9190614530565b9050816040015173ffffffffffffffffffffffffffffffffffffffff166108fc829081150290604051600060405180830381858888f19350505050158015610db8573d6000803e3d6000fd5b508260020160009054906101000a900473ffffffffffffffffffffffffffffffffffffffff1673ffffffffffffffffffffffffffffffffffffffff166108fc349081150290604051600060405180830381858888f19350505050158015610e23573d6000803e3d6000fd5b50610e538360020160009054906101000a900473ffffffffffffffffffffffffffffffffffffffff16338661281a565b338360020160006101000a81548173ffffffffffffffffffffffffffffffffffffffff021916908373ffffffffffffffffffffffffffffffffffffffff16021790555050505050565b610ead610ea7612759565b82612a76565b610eec576040517f08c379a0000000000000000000000000000000000000000000000000000000008152600401610ee3906142d3565b60405180910390fd5b610ef783838361281a565b505050565b6060600060068054905067ffffffffffffffff811115610f45577f4e487b7100000000000000000000000000000000000000000000000000000000600052604160045260246000fd5b604051908082528060200260200182016040528015610f7e57816020015b610f6b61316a565b815260200190600190039081610f635790505b5090506000805b60068054905081101561113d576001151560068281548110610fd0577f4e487b7100000000000000000000000000000000000000000000000000000000600052603260045260246000fd5b906000526020600020906005020160040160009054906101000a900460ff161515141561112a5760068181548110611031577f4e487b7100000000000000000000000000000000000000000000000000000000600052603260045260246000fd5b90600052602060002090600502016040518060a001604052908160008201548152602001600182015481526020016002820160009054906101000a900473ffffffffffffffffffffffffffffffffffffffff1673ffffffffffffffffffffffffffffffffffffffff1673ffffffffffffffffffffffffffffffffffffffff168152602001600382015481526020016004820160009054906101000a900460ff161515151581525050838281518110611112577f4e487b7100000000000000000000000000000000000000000000000000000000600052603260045260246000fd5b6020026020010181905250816111279061468f565b91505b80806111359061468f565b915050610f85565b5060008167ffffffffffffffff811115611180577f4e487b7100000000000000000000000000000000000000000000000000000000600052604160045260246000fd5b6040519080825280602002602001820160405280156111b957816020015b6111a661316a565b81526020019060019003908161119e5790505b50905060005b8281101561125f57838181518110611200577f4e487b7100000000000000000000000000000000000000000000000000000000600052603260045260246000fd5b6020026020010151828281518110611241577f4e487b7100000000000000000000000000000000000000000000000000000000600052603260045260246000fd5b602002602001018190525080806112579061468f565b9150506111bf565b5080935050505090565b606060006007805480602002602001604051908101604052809291908181526020016000905b8282101561145957838290600052602060002090600602016040518060c00160405290816000820180546112c29061465d565b80601f01602080910402602001604051908101604052809291908181526020018280546112ee9061465d565b801561133b5780601f106113105761010080835404028352916020019161133b565b820191906000526020600020905b81548152906001019060200180831161131e57829003601f168201915b505050505081526020016001820180546113549061465d565b80601f01602080910402602001604051908101604052809291908181526020018280546113809061465d565b80156113cd5780601f106113a2576101008083540402835291602001916113cd565b820191906000526020600020905b8154815290600101906020018083116113b057829003601f168201915b505050505081526020016002820160009054906101000a900473ffffffffffffffffffffffffffffffffffffffff1673ffffffffffffffffffffffffffffffffffffffff1673ffffffffffffffffffffffffffffffffffffffff16815260200160038201548152602001600482015481526020016005820154815250508152602001906001019061128f565b5050505090508091505090565b6114818383836040518060200160405280600081525061201e565b505050565b606060006006805480602002602001604051908101604052809291908181526020016000905b8282101561156d57838290600052602060002090600502016040518060a001604052908160008201548152602001600182015481526020016002820160009054906101000a900473ffffffffffffffffffffffffffffffffffffffff1673ffffffffffffffffffffffffffffffffffffffff1673ffffffffffffffffffffffffffffffffffffffff168152602001600382015481526020016004820160009054906101000a900460ff161515151581525050815260200190600101906114ac565b5050505090508091505090565b6006818154811061158a57600080fd5b90600052602060002090600502016000915090508060000154908060010154908060020160009054906101000a900473ffffffffffffffffffffffffffffffffffffffff16908060030154908060040160009054906101000a900460ff16905085565b6000806002600084815260200190815260200160002060009054906101000a900473ffffffffffffffffffffffffffffffffffffffff169050600073ffffffffffffffffffffffffffffffffffffffff168173ffffffffffffffffffffffffffffffffffffffff161415611696576040517f08c379a000000000000000000000000000000000000000000000000000000000815260040161168d90614213565b60405180910390fd5b80915050919050565b600780549050811080156116b4575060008110155b6116bd57600080fd5b6000600782815481106116f9577f4e487b7100000000000000000000000000000000000000000000000000000000600052603260045260246000fd5b90600052602060002090600602019050806005015434101561171a57600080fd5b600081600401541161172b57600080fd5b60018160040160008282546117409190614561565b9250508190555060008160040154826003015461175d9190614561565b905060066040518060a001604052808581526020018381526020013373ffffffffffffffffffffffffffffffffffffffff16815260200160008152602001600015158152509080600181540180825580915050600190039060005260206000209060050201600090919091909150600082015181600001556020820151816001015560408201518160020160006101000a81548173ffffffffffffffffffffffffffffffffffffffff021916908373ffffffffffffffffffffffffffffffffffffffff1602179055506060820151816003015560808201518160040160006101000a81548160ff0219169083151502179055505050600060016006805490506118669190614561565b90506118723382612b54565b8260020160009054906101000a900473ffffffffffffffffffffffffffffffffffffffff1673ffffffffffffffffffffffffffffffffffffffff166108fc349081150290604051600060405180830381858888f193505050501580156118dc573d6000803e3d6000fd5b5050505050565b6118eb6131b1565b600060078381548110611927577f4e487b7100000000000000000000000000000000000000000000000000000000600052603260045260246000fd5b90600052602060002090600602016040518060c00160405290816000820180546119509061465d565b80601f016020809104026020016040519081016040528092919081815260200182805461197c9061465d565b80156119c95780601f1061199e576101008083540402835291602001916119c9565b820191906000526020600020905b8154815290600101906020018083116119ac57829003601f168201915b505050505081526020016001820180546119e29061465d565b80601f0160208091040260200160405190810160405280929190818152602001828054611a0e9061465d565b8015611a5b5780601f10611a3057610100808354040283529160200191611a5b565b820191906000526020600020905b815481529060010190602001808311611a3e57829003601f168201915b505050505081526020016002820160009054906101000a900473ffffffffffffffffffffffffffffffffffffffff1673ffffffffffffffffffffffffffffffffffffffff1673ffffffffffffffffffffffffffffffffffffffff1681526020016003820154815260200160048201548152602001600582015481525050905080915050919050565b60008073ffffffffffffffffffffffffffffffffffffffff168273ffffffffffffffffffffffffffffffffffffffff161415611b54576040517f08c379a0000000000000000000000000000000000000000000000000000000008152600401611b4b906141f3565b60405180910390fd5b600360008373ffffffffffffffffffffffffffffffffffffffff1673ffffffffffffffffffffffffffffffffffffffff168152602001908152602001600020549050919050565b60068054905081108015611bb0575060008110155b611bb957600080fd5b3373ffffffffffffffffffffffffffffffffffffffff1660068281548110611c0a577f4e487b7100000000000000000000000000000000000000000000000000000000600052603260045260246000fd5b906000526020600020906005020160020160009054906101000a900473ffffffffffffffffffffffffffffffffffffffff1673ffffffffffffffffffffffffffffffffffffffff1614611c5c57600080fd5b600060068281548110611c98577f4e487b7100000000000000000000000000000000000000000000000000000000600052603260045260246000fd5b9060005260206000209060050201905060008160040160006101000a81548160ff021916908315150217905550600081600301819055505050565b606060018054611ce29061465d565b80601f0160208091040260200160405190810160405280929190818152602001828054611d0e9061465d565b8015611d5b5780601f10611d3057610100808354040283529160200191611d5b565b820191906000526020600020905b815481529060010190602001808311611d3e57829003601f168201915b5050505050905090565b60068054905082108015611d7a575060008210155b611d8357600080fd5b3373ffffffffffffffffffffffffffffffffffffffff1660068381548110611dd4577f4e487b7100000000000000000000000000000000000000000000000000000000600052603260045260246000fd5b906000526020600020906005020160020160009054906101000a900473ffffffffffffffffffffffffffffffffffffffff1673ffffffffffffffffffffffffffffffffffffffff1614611e2657600080fd5b600060068381548110611e62577f4e487b7100000000000000000000000000000000000000000000000000000000600052603260045260246000fd5b9060005260206000209060050201905060018160040160006101000a81548160ff021916908315150217905550818160030181905550505050565b611ea5612759565b73ffffffffffffffffffffffffffffffffffffffff168273ffffffffffffffffffffffffffffffffffffffff161415611f13576040517f08c379a0000000000000000000000000000000000000000000000000000000008152600401611f0a90614193565b60405180910390fd5b8060056000611f20612759565b73ffffffffffffffffffffffffffffffffffffffff1673ffffffffffffffffffffffffffffffffffffffff16815260200190815260200160002060008473ffffffffffffffffffffffffffffffffffffffff1673ffffffffffffffffffffffffffffffffffffffff16815260200190815260200160002060006101000a81548160ff0219169083151502179055508173ffffffffffffffffffffffffffffffffffffffff16611fcd612759565b73ffffffffffffffffffffffffffffffffffffffff167f17307eab39ab6107e8899845ad3d59bd9653f200f220920489ca2b5937696c31836040516120129190614087565b60405180910390a35050565b61202f612029612759565b83612a76565b61206e576040517f08c379a0000000000000000000000000000000000000000000000000000000008152600401612065906142d3565b60405180910390fd5b61207a84848484612b72565b50505050565b60006040518060c001604052808681526020018581526020013373ffffffffffffffffffffffffffffffffffffffff1681526020018481526020018481526020018381525090506007819080600181540180825580915050600190039060005260206000209060060201600090919091909150600082015181600001908051906020019061210f9291906131fd565b50602082015181600101908051906020019061212c9291906131fd565b5060408201518160020160006101000a81548173ffffffffffffffffffffffffffffffffffffffff021916908373ffffffffffffffffffffffffffffffffffffffff160217905550606082015181600301556080820151816004015560a0820151816005015550505050505050565b60606121a6826126ed565b6121e5576040517f08c379a00000000000000000000000000000000000000000000000000000000081526004016121dc90614293565b60405180910390fd5b60006121ef612bce565b9050600081511161220f576040518060200160405280600081525061223a565b8061221984612be5565b60405160200161222a929190613fb8565b6040516020818303038152906040525b915050919050565b6060600060068054905067ffffffffffffffff81111561228b577f4e487b7100000000000000000000000000000000000000000000000000000000600052604160045260246000fd5b6040519080825280602002602001820160405280156122c457816020015b6122b161316a565b8152602001906001900390816122a95790505b50905060003390506000805b6006805490508110156124c2578273ffffffffffffffffffffffffffffffffffffffff166006828154811061232e577f4e487b7100000000000000000000000000000000000000000000000000000000600052603260045260246000fd5b906000526020600020906005020160020160009054906101000a900473ffffffffffffffffffffffffffffffffffffffff1673ffffffffffffffffffffffffffffffffffffffff1614156124af57600681815481106123b6577f4e487b7100000000000000000000000000000000000000000000000000000000600052603260045260246000fd5b90600052602060002090600502016040518060a001604052908160008201548152602001600182015481526020016002820160009054906101000a900473ffffffffffffffffffffffffffffffffffffffff1673ffffffffffffffffffffffffffffffffffffffff1673ffffffffffffffffffffffffffffffffffffffff168152602001600382015481526020016004820160009054906101000a900460ff161515151581525050848281518110612497577f4e487b7100000000000000000000000000000000000000000000000000000000600052603260045260246000fd5b6020026020010181905250816124ac9061468f565b91505b80806124ba9061468f565b9150506122d0565b5060008167ffffffffffffffff811115612505577f4e487b7100000000000000000000000000000000000000000000000000000000600052604160045260246000fd5b60405190808252806020026020018201604052801561253e57816020015b61252b61316a565b8152602001906001900390816125235790505b50905060005b828110156125e457848181518110612585577f4e487b7100000000000000000000000000000000000000000000000000000000600052603260045260246000fd5b60200260200101518282815181106125c6577f4e487b7100000000000000000000000000000000000000000000000000000000600052603260045260246000fd5b602002602001018190525080806125dc9061468f565b915050612544565b508094505050505090565b6000600560008473ffffffffffffffffffffffffffffffffffffffff1673ffffffffffffffffffffffffffffffffffffffff16815260200190815260200160002060008373ffffffffffffffffffffffffffffffffffffffff1673ffffffffffffffffffffffffffffffffffffffff16815260200190815260200160002060009054906101000a900460ff16905092915050565b60007f01ffc9a7000000000000000000000000000000000000000000000000000000007bffffffffffffffffffffffffffffffffffffffffffffffffffffffff1916827bffffffffffffffffffffffffffffffffffffffffffffffffffffffff1916149050919050565b60008073ffffffffffffffffffffffffffffffffffffffff166002600084815260200190815260200160002060009054906101000a900473ffffffffffffffffffffffffffffffffffffffff1673ffffffffffffffffffffffffffffffffffffffff1614159050919050565b600033905090565b816004600083815260200190815260200160002060006101000a81548173ffffffffffffffffffffffffffffffffffffffff021916908373ffffffffffffffffffffffffffffffffffffffff160217905550808273ffffffffffffffffffffffffffffffffffffffff166127d4836115ed565b73ffffffffffffffffffffffffffffffffffffffff167f8c5be1e5ebec7d5bd14f71427d1e84f3dd0314c0f7b2291e5b200ac8c7c3b92560405160405180910390a45050565b8273ffffffffffffffffffffffffffffffffffffffff1661283a826115ed565b73ffffffffffffffffffffffffffffffffffffffff1614612890576040517f08c379a000000000000000000000000000000000000000000000000000000000815260040161288790614273565b60405180910390fd5b600073ffffffffffffffffffffffffffffffffffffffff168273ffffffffffffffffffffffffffffffffffffffff161415612900576040517f08c379a00000000000000000000000000000000000000000000000000000000081526004016128f790614173565b60405180910390fd5b61290b838383612d92565b612916600082612761565b6001600360008573ffffffffffffffffffffffffffffffffffffffff1673ffffffffffffffffffffffffffffffffffffffff16815260200190815260200160002060008282546129669190614561565b925050819055506001600360008473ffffffffffffffffffffffffffffffffffffffff1673ffffffffffffffffffffffffffffffffffffffff16815260200190815260200160002060008282546129bd91906144da565b92505081905550816002600083815260200190815260200160002060006101000a81548173ffffffffffffffffffffffffffffffffffffffff021916908373ffffffffffffffffffffffffffffffffffffffff160217905550808273ffffffffffffffffffffffffffffffffffffffff168473ffffffffffffffffffffffffffffffffffffffff167fddf252ad1be2c89b69c2b068fc378daa952ba7f163c4a11628f55a4df523b3ef60405160405180910390a4505050565b6000612a81826126ed565b612ac0576040517f08c379a0000000000000000000000000000000000000000000000000000000008152600401612ab7906141b3565b60405180910390fd5b6000612acb836115ed565b90508073ffffffffffffffffffffffffffffffffffffffff168473ffffffffffffffffffffffffffffffffffffffff161480612b3a57508373ffffffffffffffffffffffffffffffffffffffff16612b228461078f565b73ffffffffffffffffffffffffffffffffffffffff16145b80612b4b5750612b4a81856125ef565b5b91505092915050565b612b6e828260405180602001604052806000815250612d97565b5050565b612b7d84848461281a565b612b8984848484612df2565b612bc8576040517f08c379a0000000000000000000000000000000000000000000000000000000008152600401612bbf90614133565b60405180910390fd5b50505050565b606060405180602001604052806000815250905090565b60606000821415612c2d576040518060400160405280600181526020017f30000000000000000000000000000000000000000000000000000000000000008152509050612d8d565b600082905060005b60008214612c5f578080612c489061468f565b915050600a82612c589190614530565b9150612c35565b60008167ffffffffffffffff811115612ca1577f4e487b7100000000000000000000000000000000000000000000000000000000600052604160045260246000fd5b6040519080825280601f01601f191660200182016040528015612cd35781602001600182028036833780820191505090505b5090505b60008514612d8657600182612cec9190614561565b9150600a85612cfb91906146d8565b6030612d0791906144da565b60f81b818381518110612d43577f4e487b7100000000000000000000000000000000000000000000000000000000600052603260045260246000fd5b60200101907effffffffffffffffffffffffffffffffffffffffffffffffffffffffffffff1916908160001a905350600a85612d7f9190614530565b9450612cd7565b8093505050505b919050565b505050565b612da18383612f89565b612dae6000848484612df2565b612ded576040517f08c379a0000000000000000000000000000000000000000000000000000000008152600401612de490614133565b60405180910390fd5b505050565b6000612e138473ffffffffffffffffffffffffffffffffffffffff16613157565b15612f7c578373ffffffffffffffffffffffffffffffffffffffff1663150b7a02612e3c612759565b8786866040518563ffffffff1660e01b8152600401612e5e9493929190613ff7565b602060405180830381600087803b158015612e7857600080fd5b505af1925050508015612ea957506040513d601f19601f82011682018060405250810190612ea691906135a9565b60015b612f2c573d8060008114612ed9576040519150601f19603f3d011682016040523d82523d6000602084013e612ede565b606091505b50600081511415612f24576040517f08c379a0000000000000000000000000000000000000000000000000000000008152600401612f1b90614133565b60405180910390fd5b805181602001fd5b63150b7a0260e01b7bffffffffffffffffffffffffffffffffffffffffffffffffffffffff1916817bffffffffffffffffffffffffffffffffffffffffffffffffffffffff191614915050612f81565b600190505b949350505050565b600073ffffffffffffffffffffffffffffffffffffffff168273ffffffffffffffffffffffffffffffffffffffff161415612ff9576040517f08c379a0000000000000000000000000000000000000000000000000000000008152600401612ff090614233565b60405180910390fd5b613002816126ed565b15613042576040517f08c379a000000000000000000000000000000000000000000000000000000000815260040161303990614153565b60405180910390fd5b61304e60008383612d92565b6001600360008473ffffffffffffffffffffffffffffffffffffffff1673ffffffffffffffffffffffffffffffffffffffff168152602001908152602001600020600082825461309e91906144da565b92505081905550816002600083815260200190815260200160002060006101000a81548173ffffffffffffffffffffffffffffffffffffffff021916908373ffffffffffffffffffffffffffffffffffffffff160217905550808273ffffffffffffffffffffffffffffffffffffffff16600073ffffffffffffffffffffffffffffffffffffffff167fddf252ad1be2c89b69c2b068fc378daa952ba7f163c4a11628f55a4df523b3ef60405160405180910390a45050565b600080823b905060008111915050919050565b6040518060a001604052806000815260200160008152602001600073ffffffffffffffffffffffffffffffffffffffff168152602001600081526020016000151581525090565b6040518060c001604052806060815260200160608152602001600073ffffffffffffffffffffffffffffffffffffffff1681526020016000815260200160008152602001600081525090565b8280546132099061465d565b90600052602060002090601f01602090048101928261322b5760008555613272565b82601f1061324457805160ff1916838001178555613272565b82800160010185558215613272579182015b82811115613271578251825591602001919060010190613256565b5b50905061327f9190613283565b5090565b5b8082111561329c576000816000905550600101613284565b5090565b60006132b36132ae846143b4565b614383565b9050828152602081018484840111156132cb57600080fd5b6132d684828561461b565b509392505050565b60006132f16132ec846143e4565b614383565b90508281526020810184848401111561330957600080fd5b61331484828561461b565b509392505050565b60008135905061332b816147d6565b92915050565b600081359050613340816147ed565b92915050565b60008135905061335581614804565b92915050565b60008151905061336a81614804565b92915050565b600082601f83011261338157600080fd5b81356133918482602086016132a0565b91505092915050565b600082601f8301126133ab57600080fd5b81356133bb8482602086016132de565b91505092915050565b6000813590506133d38161481b565b92915050565b6000602082840312156133eb57600080fd5b60006133f98482850161331c565b91505092915050565b6000806040838503121561341557600080fd5b60006134238582860161331c565b92505060206134348582860161331c565b9150509250929050565b60008060006060848603121561345357600080fd5b60006134618682870161331c565b93505060206134728682870161331c565b9250506040613483868287016133c4565b9150509250925092565b600080600080608085870312156134a357600080fd5b60006134b18782880161331c565b94505060206134c28782880161331c565b93505060406134d3878288016133c4565b925050606085013567ffffffffffffffff8111156134f057600080fd5b6134fc87828801613370565b91505092959194509250565b6000806040838503121561351b57600080fd5b60006135298582860161331c565b925050602061353a85828601613331565b9150509250929050565b6000806040838503121561355757600080fd5b60006135658582860161331c565b9250506020613576858286016133c4565b9150509250929050565b60006020828403121561359257600080fd5b60006135a084828501613346565b91505092915050565b6000602082840312156135bb57600080fd5b60006135c98482850161335b565b91505092915050565b600080600080608085870312156135e857600080fd5b600085013567ffffffffffffffff81111561360257600080fd5b61360e8782880161339a565b945050602085013567ffffffffffffffff81111561362b57600080fd5b6136378782880161339a565b9350506040613648878288016133c4565b9250506060613659878288016133c4565b91505092959194509250565b60006020828403121561367757600080fd5b6000613685848285016133c4565b91505092915050565b600080604083850312156136a157600080fd5b60006136af858286016133c4565b92505060206136c0858286016133c4565b9150509250929050565b60006136d68383613e12565b905092915050565b60006136ea8383613f32565b60a08301905092915050565b6136ff816145a7565b82525050565b61370e816145a7565b82525050565b61371d81614595565b82525050565b600061372e82614434565b613738818561447a565b93508360208202850161374a85614414565b8060005b85811015613786578484038952815161376785826136ca565b945061377283614460565b925060208a0199505060018101905061374e565b50829750879550505050505092915050565b60006137a38261443f565b6137ad818561448b565b93506137b883614424565b8060005b838110156137e95781516137d088826136de565b97506137db8361446d565b9250506001810190506137bc565b5085935050505092915050565b6137ff816145b9565b82525050565b61380e816145b9565b82525050565b600061381f8261444a565b613829818561449c565b935061383981856020860161462a565b613842816147c5565b840191505092915050565b600061385882614455565b61386281856144ad565b935061387281856020860161462a565b61387b816147c5565b840191505092915050565b600061389182614455565b61389b81856144be565b93506138ab81856020860161462a565b6138b4816147c5565b840191505092915050565b60006138ca82614455565b6138d481856144cf565b93506138e481856020860161462a565b80840191505092915050565b60006138fd6032836144be565b91507f4552433732313a207472616e7366657220746f206e6f6e20455243373231526560008301527f63656976657220696d706c656d656e74657200000000000000000000000000006020830152604082019050919050565b6000613963601c836144be565b91507f4552433732313a20746f6b656e20616c7265616479206d696e746564000000006000830152602082019050919050565b60006139a36024836144be565b91507f4552433732313a207472616e7366657220746f20746865207a65726f2061646460008301527f72657373000000000000000000000000000000000000000000000000000000006020830152604082019050919050565b6000613a096019836144be565b91507f4552433732313a20617070726f766520746f2063616c6c6572000000000000006000830152602082019050919050565b6000613a49602c836144be565b91507f4552433732313a206f70657261746f7220717565727920666f72206e6f6e657860008301527f697374656e7420746f6b656e00000000000000000000000000000000000000006020830152604082019050919050565b6000613aaf6038836144be565b91507f4552433732313a20617070726f76652063616c6c6572206973206e6f74206f7760008301527f6e6572206e6f7220617070726f76656420666f7220616c6c00000000000000006020830152604082019050919050565b6000613b15602a836144be565b91507f4552433732313a2062616c616e636520717565727920666f7220746865207a6560008301527f726f2061646472657373000000000000000000000000000000000000000000006020830152604082019050919050565b6000613b7b6029836144be565b91507f4552433732313a206f776e657220717565727920666f72206e6f6e657869737460008301527f656e7420746f6b656e00000000000000000000000000000000000000000000006020830152604082019050919050565b6000613be16020836144be565b91507f4552433732313a206d696e7420746f20746865207a65726f20616464726573736000830152602082019050919050565b6000613c21602c836144be565b91507f4552433732313a20617070726f76656420717565727920666f72206e6f6e657860008301527f697374656e7420746f6b656e00000000000000000000000000000000000000006020830152604082019050919050565b6000613c876029836144be565b91507f4552433732313a207472616e73666572206f6620746f6b656e2074686174206960008301527f73206e6f74206f776e00000000000000000000000000000000000000000000006020830152604082019050919050565b6000613ced602f836144be565b91507f4552433732314d657461646174613a2055524920717565727920666f72206e6f60008301527f6e6578697374656e7420746f6b656e00000000000000000000000000000000006020830152604082019050919050565b6000613d536021836144be565b91507f4552433732313a20617070726f76616c20746f2063757272656e74206f776e6560008301527f72000000000000000000000000000000000000000000000000000000000000006020830152604082019050919050565b6000613db96031836144be565b91507f4552433732313a207472616e736665722063616c6c6572206973206e6f74206f60008301527f776e6572206e6f7220617070726f7665640000000000000000000000000000006020830152604082019050919050565b600060c0830160008301518482036000860152613e2f828261384d565b91505060208301518482036020860152613e49828261384d565b9150506040830151613e5e60408601826136f6565b506060830151613e716060860182613f9a565b506080830151613e846080860182613f9a565b5060a0830151613e9760a0860182613f9a565b508091505092915050565b600060c0830160008301518482036000860152613ebf828261384d565b91505060208301518482036020860152613ed9828261384d565b9150506040830151613eee60408601826136f6565b506060830151613f016060860182613f9a565b506080830151613f146080860182613f9a565b5060a0830151613f2760a0860182613f9a565b508091505092915050565b60a082016000820151613f486000850182613f9a565b506020820151613f5b6020850182613f9a565b506040820151613f6e60408501826136f6565b506060820151613f816060850182613f9a565b506080820151613f9460808501826137f6565b50505050565b613fa381614611565b82525050565b613fb281614611565b82525050565b6000613fc482856138bf565b9150613fd082846138bf565b91508190509392505050565b6000602082019050613ff16000830184613714565b92915050565b600060808201905061400c6000830187613714565b6140196020830186613714565b6140266040830185613fa9565b81810360608301526140388184613814565b905095945050505050565b6000602082019050818103600083015261405d8184613723565b905092915050565b6000602082019050818103600083015261407f8184613798565b905092915050565b600060208201905061409c6000830184613805565b92915050565b600060208201905081810360008301526140bc8184613886565b905092915050565b600060c08201905081810360008301526140de8189613886565b905081810360208301526140f28188613886565b90506141016040830187613705565b61410e6060830186613fa9565b61411b6080830185613fa9565b61412860a0830184613fa9565b979650505050505050565b6000602082019050818103600083015261414c816138f0565b9050919050565b6000602082019050818103600083015261416c81613956565b9050919050565b6000602082019050818103600083015261418c81613996565b9050919050565b600060208201905081810360008301526141ac816139fc565b9050919050565b600060208201905081810360008301526141cc81613a3c565b9050919050565b600060208201905081810360008301526141ec81613aa2565b9050919050565b6000602082019050818103600083015261420c81613b08565b9050919050565b6000602082019050818103600083015261422c81613b6e565b9050919050565b6000602082019050818103600083015261424c81613bd4565b9050919050565b6000602082019050818103600083015261426c81613c14565b9050919050565b6000602082019050818103600083015261428c81613c7a565b9050919050565b600060208201905081810360008301526142ac81613ce0565b9050919050565b600060208201905081810360008301526142cc81613d46565b9050919050565b600060208201905081810360008301526142ec81613dac565b9050919050565b6000602082019050818103600083015261430d8184613ea2565b905092915050565b600060208201905061432a6000830184613fa9565b92915050565b600060a0820190506143456000830188613fa9565b6143526020830187613fa9565b61435f6040830186613705565b61436c6060830185613fa9565b6143796080830184613805565b9695505050505050565b6000604051905081810181811067ffffffffffffffff821117156143aa576143a9614796565b5b8060405250919050565b600067ffffffffffffffff8211156143cf576143ce614796565b5b601f19601f8301169050602081019050919050565b600067ffffffffffffffff8211156143ff576143fe614796565b5b601f19601f8301169050602081019050919050565b6000819050602082019050919050565b6000819050602082019050919050565b600081519050919050565b600081519050919050565b600081519050919050565b600081519050919050565b6000602082019050919050565b6000602082019050919050565b600082825260208201905092915050565b600082825260208201905092915050565b600082825260208201905092915050565b600082825260208201905092915050565b600082825260208201905092915050565b600081905092915050565b60006144e582614611565b91506144f083614611565b9250827fffffffffffffffffffffffffffffffffffffffffffffffffffffffffffffffff0382111561452557614524614709565b5b828201905092915050565b600061453b82614611565b915061454683614611565b92508261455657614555614738565b5b828204905092915050565b600061456c82614611565b915061457783614611565b92508282101561458a57614589614709565b5b828203905092915050565b60006145a0826145f1565b9050919050565b60006145b2826145f1565b9050919050565b60008115159050919050565b60007fffffffff0000000000000000000000000000000000000000000000000000000082169050919050565b600073ffffffffffffffffffffffffffffffffffffffff82169050919050565b6000819050919050565b82818337600083830152505050565b60005b8381101561464857808201518184015260208101905061462d565b83811115614657576000848401525b50505050565b6000600282049050600182168061467557607f821691505b6020821081141561468957614688614767565b5b50919050565b600061469a82614611565b91507fffffffffffffffffffffffffffffffffffffffffffffffffffffffffffffffff8214156146cd576146cc614709565b5b600182019050919050565b60006146e382614611565b91506146ee83614611565b9250826146fe576146fd614738565b5b828206905092915050565b7f4e487b7100000000000000000000000000000000000000000000000000000000600052601160045260246000fd5b7f4e487b7100000000000000000000000000000000000000000000000000000000600052601260045260246000fd5b7f4e487b7100000000000000000000000000000000000000000000000000000000600052602260045260246000fd5b7f4e487b7100000000000000000000000000000000000000000000000000000000600052604160045260246000fd5b6000601f19601f8301169050919050565b6147df81614595565b81146147ea57600080fd5b50565b6147f6816145b9565b811461480157600080fd5b50565b61480d816145c5565b811461481857600080fd5b50565b61482481614611565b811461482f57600080fd5b5056fea2646970667358221220a32a00cca428c5f3510a2375a43d64fcbd9356bc91532a67983372ccc13e3e3164736f6c63430008000033",
  "immutableReferences": {},
  "source": "// SPDX-License-Identifier: MIT\r\npragma solidity ^0.8.0;\r\n\r\nimport \"@openzeppelin/contracts/token/ERC721/ERC721.sol\";\r\n\r\ncontract EventMainSheeeeeeeeeeeeeesh is ERC721{\r\n    constructor() ERC721(\"Event\", \"EVT\"){\r\n    }\r\n\r\n    Ticket[] public tickets;\r\n    Event[] public events;\r\n    \r\n    struct Ticket{\r\n        uint evtId;\r\n        uint number;\r\n        address payable owner;\r\n        uint256 price;\r\n        bool forSale;\r\n    }\r\n\r\n    struct Event{\r\n        string title;\r\n        string description;\r\n        address payable creator;\r\n        uint amount;\r\n        uint remainingAmount;\r\n        uint256 price;\r\n    }\r\n\r\n\r\n    function createEvent(string memory _title, string memory _description, uint _amount, uint256 _price) public {\r\n        Event memory evt = Event(_title, _description, payable(msg.sender), _amount, _amount, _price);\r\n        events.push(evt);   \r\n    }\r\n\r\n    //returns all Events, NOT Tickets\r\n    function getEvents() public view returns (Event[] memory _event){\r\n        Event[] memory allEvents = events;\r\n        return allEvents;\r\n    }\r\n\r\n        //returns all Events, NOT Tickets\r\n    function getEvent(uint _evtId) public view returns (Event memory){\r\n        Event memory evt = events[_evtId];\r\n        return evt;\r\n    }\r\n\r\n    //returns all minted Tickets\r\n    function getTickets() public view returns (Ticket[] memory ticket){\r\n        Ticket[] memory allTickets = tickets;\r\n        return allTickets;\r\n    }\r\n\r\n    //returns all minted Tickets for sale\r\n    function getTicketsForSale() public view returns (Ticket[] memory ticket){\r\n        //memory doesn't allow dynamic arrays, so this is the best we can do :(\r\n        Ticket[] memory ticketsForSale = new Ticket[](tickets.length);\r\n        uint count = 0;\r\n        for (uint i=0; i<tickets.length; i++) {\r\n            if(tickets[i].forSale == true){\r\n                ticketsForSale[i] = tickets[i];    \r\n                ++count;\r\n            }\r\n        }\r\n\r\n        //solidity does not allow dynamic arrays in memory. Because of this we need to remove the empty indexes\r\n        Ticket[] memory trimmedTickets = new Ticket[](count);\r\n        for (uint i=0; i<count; i++) {\r\n            trimmedTickets[i] = ticketsForSale[i];\r\n        }\r\n\r\n        return trimmedTickets;\r\n    }\r\n\r\n    //returns all Tickets the sender owns\r\n    function getMyTickets() public view returns (Ticket[] memory ticket){\r\n        Ticket[] memory ticketsFrom = new Ticket[](tickets.length);\r\n        address payable sender = payable(msg.sender);\r\n        uint count = 0;\r\n        for (uint i=0; i<tickets.length; i++) {\r\n            if(tickets[i].owner == sender){\r\n                ticketsFrom[i] = tickets[i];    \r\n                ++count;\r\n            }\r\n        }\r\n        \r\n        //solidity does not allow dynamic arrays in memory. Because of this we need to remove the empty indexes\r\n        Ticket[] memory trimmedTickets = new Ticket[](count);\r\n        for (uint i=0; i<count; i++) {\r\n            trimmedTickets[i] = ticketsFrom[i];\r\n        }\r\n\r\n        return trimmedTickets;\r\n    }\r\n\r\n    //purchase a Ticket that matches with Event-ID\r\n    function buyTicket(uint evtId) public payable{\r\n        require(evtId < events.length && evtId >= 0);\r\n        \r\n        Event storage evt = events[evtId];\r\n        require(msg.value >= evt.price);\r\n        require(evt.remainingAmount > 0);\r\n\r\n        evt.remainingAmount -= 1;\r\n        uint ticketNumber = evt.amount - evt.remainingAmount;\r\n\r\n        tickets.push(Ticket(evtId, ticketNumber, payable(msg.sender), 0, false));\r\n        uint ticketId = tickets.length-1;\r\n\r\n        //mint Ticket to buyers address\r\n        _safeMint(msg.sender, ticketId);\r\n        //send the creator the transmitted money\r\n        evt.creator.transfer(msg.value);\r\n    }\r\n    \r\n    function buyTicketFromMarket(uint ticketId) public payable{\r\n        require(ticketId < tickets.length && ticketId >= 0);\r\n\r\n        Ticket storage ticket = tickets[ticketId];\r\n\r\n        // require(ticket.forSale==true);\r\n        require(msg.value >= ticket.price);\r\n\r\n        Event memory evt = events[tickets[ticketId].evtId];\r\n        uint creatorFee = msg.value / 10;\r\n        evt.creator.transfer(creatorFee);\r\n        ticket.owner.transfer(msg.value);\r\n        _transfer(ticket.owner, msg.sender, ticketId);\r\n        ticket.owner=payable(msg.sender);\r\n    }\r\n\r\n\r\n    //put ticket up for sale\r\n    function startSellingTicket(uint _ticketId, uint _price) public{\r\n        require(_ticketId < tickets.length && _ticketId >= 0);\r\n        require(tickets[_ticketId].owner == msg.sender);\r\n        Ticket storage ticket = tickets[_ticketId];\r\n        ticket.forSale = true;\r\n        ticket.price = _price;\r\n    }\r\n\r\n    //put ticket down from sale\r\n    function stopSellingTicket(uint _ticketId) public{\r\n        require(_ticketId < tickets.length && _ticketId >= 0);\r\n        require(tickets[_ticketId].owner == msg.sender);\r\n        Ticket storage ticket = tickets[_ticketId];\r\n        ticket.forSale = false;\r\n        ticket.price = 0;\r\n    }\r\n\r\n}",
  "sourcePath": "C:/Users/Simon/projects/event/app/contracts/EventMainSheeesh.sol",
  "compiler": {
    "name": "solc",
    "version": "0.8.0+commit.c7dfd78e.Emscripten.clang"
  },
  "schemaVersion": "3.3.4",
  "updatedAt": "2021-05-01T17:16:19.736Z",
  "devdoc": {
    "kind": "dev",
    "methods": {
      "approve(address,uint256)": {
        "details": "See {IERC721-approve}."
      },
      "balanceOf(address)": {
        "details": "See {IERC721-balanceOf}."
      },
      "getApproved(uint256)": {
        "details": "See {IERC721-getApproved}."
      },
      "isApprovedForAll(address,address)": {
        "details": "See {IERC721-isApprovedForAll}."
      },
      "name()": {
        "details": "See {IERC721Metadata-name}."
      },
      "ownerOf(uint256)": {
        "details": "See {IERC721-ownerOf}."
      },
      "safeTransferFrom(address,address,uint256)": {
        "details": "See {IERC721-safeTransferFrom}."
      },
      "safeTransferFrom(address,address,uint256,bytes)": {
        "details": "See {IERC721-safeTransferFrom}."
      },
      "setApprovalForAll(address,bool)": {
        "details": "See {IERC721-setApprovalForAll}."
      },
      "supportsInterface(bytes4)": {
        "details": "See {IERC165-supportsInterface}."
      },
      "symbol()": {
        "details": "See {IERC721Metadata-symbol}."
      },
      "tokenURI(uint256)": {
        "details": "See {IERC721Metadata-tokenURI}."
      },
      "transferFrom(address,address,uint256)": {
        "details": "See {IERC721-transferFrom}."
      }
    },
    "version": 1
  },
  "userdoc": {
    "kind": "user",
    "methods": {},
    "version": 1
  }
}